{
	"contracts/MyContract.sol": {
		"MyContract": {
			"abi": [
				{
					"inputs": [],
					"name": "getValue",
					"outputs": [
						{
							"internalType": "uint256",
							"name": "",
							"type": "uint256"
						}
					],
					"stateMutability": "pure",
					"type": "function"
				},
				{
					"inputs": [],
					"name": "myUint",
					"outputs": [
						{
							"internalType": "uint256",
							"name": "",
							"type": "uint256"
						}
					],
					"stateMutability": "view",
					"type": "function"
				},
				{
					"inputs": [],
					"name": "myUint1",
					"outputs": [
						{
							"internalType": "uint256",
							"name": "",
							"type": "uint256"
						}
					],
					"stateMutability": "view",
					"type": "function"
				}
			],
			"devdoc": {
				"kind": "dev",
				"methods": {},
				"version": 1
			},
			"evm": {
				"assembly": "    /* \"contracts/MyContract.sol\":57:255  contract MyContract {... */\n  mstore(0x40, 0x80)\n    /* \"contracts/MyContract.sol\":107:108  1 */\n  0x01\n    /* \"contracts/MyContract.sol\":83:108  uint256 public myUint = 1 */\n  0x00\n  sstore\n    /* \"contracts/MyContract.sol\":139:140  1 */\n  0x01\n    /* \"contracts/MyContract.sol\":114:140  uint256 public myUint1 = 1 */\n  dup1\n  sstore\n    /* \"contracts/MyContract.sol\":57:255  contract MyContract {... */\n  callvalue\n  dup1\n  iszero\n  tag_1\n  jumpi\n  0x00\n  dup1\n  revert\ntag_1:\n  pop\n  dataSize(sub_0)\n  dup1\n  dataOffset(sub_0)\n  0x00\n  codecopy\n  0x00\n  return\nstop\n\nsub_0: assembly {\n        /* \"contracts/MyContract.sol\":57:255  contract MyContract {... */\n      mstore(0x40, 0x80)\n      callvalue\n      dup1\n      iszero\n      tag_1\n      jumpi\n      0x00\n      dup1\n      revert\n    tag_1:\n      pop\n      jumpi(tag_2, lt(calldatasize, 0x04))\n      shr(0xe0, calldataload(0x00))\n      dup1\n      0x06540f7e\n      eq\n      tag_3\n      jumpi\n      dup1\n      0x20965255\n      eq\n      tag_4\n      jumpi\n      dup1\n      0x41d35ac2\n      eq\n      tag_5\n      jumpi\n    tag_2:\n      0x00\n      dup1\n      revert\n        /* \"contracts/MyContract.sol\":83:108  uint256 public myUint = 1 */\n    tag_3:\n      tag_6\n      tag_7\n      jump\t// in\n    tag_6:\n      mload(0x40)\n      tag_8\n      swap2\n      swap1\n      tag_9\n      jump\t// in\n    tag_8:\n      mload(0x40)\n      dup1\n      swap2\n      sub\n      swap1\n      return\n        /* \"contracts/MyContract.sol\":147:253  function getValue() public pure returns (uint256) {... */\n    tag_4:\n      tag_10\n      tag_11\n      jump\t// in\n    tag_10:\n      mload(0x40)\n      tag_12\n      swap2\n      swap1\n      tag_9\n      jump\t// in\n    tag_12:\n      mload(0x40)\n      dup1\n      swap2\n      sub\n      swap1\n      return\n        /* \"contracts/MyContract.sol\":114:140  uint256 public myUint1 = 1 */\n    tag_5:\n      tag_13\n      tag_14\n      jump\t// in\n    tag_13:\n      mload(0x40)\n      tag_15\n      swap2\n      swap1\n      tag_9\n      jump\t// in\n    tag_15:\n      mload(0x40)\n      dup1\n      swap2\n      sub\n      swap1\n      return\n        /* \"contracts/MyContract.sol\":83:108  uint256 public myUint = 1 */\n    tag_7:\n      sload(0x00)\n      dup2\n      jump\t// out\n        /* \"contracts/MyContract.sol\":147:253  function getValue() public pure returns (uint256) {... */\n    tag_11:\n        /* \"contracts/MyContract.sol\":188:195  uint256 */\n      0x00\n        /* \"contracts/MyContract.sol\":207:220  uint256 value */\n      dup1\n        /* \"contracts/MyContract.sol\":223:224  1 */\n      0x01\n        /* \"contracts/MyContract.sol\":207:224  uint256 value = 1 */\n      swap1\n      pop\n        /* \"contracts/MyContract.sol\":241:246  value */\n      dup1\n        /* \"contracts/MyContract.sol\":234:246  return value */\n      swap2\n      pop\n      pop\n        /* \"contracts/MyContract.sol\":147:253  function getValue() public pure returns (uint256) {... */\n      swap1\n      jump\t// out\n        /* \"contracts/MyContract.sol\":114:140  uint256 public myUint1 = 1 */\n    tag_14:\n      sload(0x01)\n      dup2\n      jump\t// out\n        /* \"#utility.yul\":7:84   */\n    tag_17:\n        /* \"#utility.yul\":44:51   */\n      0x00\n        /* \"#utility.yul\":73:78   */\n      dup2\n        /* \"#utility.yul\":62:78   */\n      swap1\n      pop\n        /* \"#utility.yul\":7:84   */\n      swap2\n      swap1\n      pop\n      jump\t// out\n        /* \"#utility.yul\":90:208   */\n    tag_18:\n        /* \"#utility.yul\":177:201   */\n      tag_22\n        /* \"#utility.yul\":195:200   */\n      dup2\n        /* \"#utility.yul\":177:201   */\n      tag_17\n      jump\t// in\n    tag_22:\n        /* \"#utility.yul\":172:175   */\n      dup3\n        /* \"#utility.yul\":165:202   */\n      mstore\n        /* \"#utility.yul\":90:208   */\n      pop\n      pop\n      jump\t// out\n        /* \"#utility.yul\":214:436   */\n    tag_9:\n        /* \"#utility.yul\":307:311   */\n      0x00\n        /* \"#utility.yul\":345:347   */\n      0x20\n        /* \"#utility.yul\":334:343   */\n      dup3\n        /* \"#utility.yul\":330:348   */\n      add\n        /* \"#utility.yul\":322:348   */\n      swap1\n      pop\n        /* \"#utility.yul\":358:429   */\n      tag_24\n        /* \"#utility.yul\":426:427   */\n      0x00\n        /* \"#utility.yul\":415:424   */\n      dup4\n        /* \"#utility.yul\":411:428   */\n      add\n        /* \"#utility.yul\":402:408   */\n      dup5\n        /* \"#utility.yul\":358:429   */\n      tag_18\n      jump\t// in\n    tag_24:\n        /* \"#utility.yul\":214:436   */\n      swap3\n      swap2\n      pop\n      pop\n      jump\t// out\n\n    auxdata: 0xa26469706673582212205de53993f8ecdb67907ba4692957aa5cf0a9337ac3cfdb2ccadc9d9dfef7b0c764736f6c63430008190033\n}\n",
				"bytecode": {
					"linkReferences": {},
					"object": "608060405260015f55600180553480156016575f80fd5b50610107806100245f395ff3fe6080604052348015600e575f80fd5b5060043610603a575f3560e01c806306540f7e14603e5780632096525514605857806341d35ac2146072575b5f80fd5b6044608c565b604051604f919060ba565b60405180910390f35b605e6091565b6040516069919060ba565b60405180910390f35b6078609e565b6040516083919060ba565b60405180910390f35b5f5481565b5f80600190508091505090565b60015481565b5f819050919050565b60b48160a4565b82525050565b5f60208201905060cb5f83018460ad565b9291505056fea26469706673582212205de53993f8ecdb67907ba4692957aa5cf0a9337ac3cfdb2ccadc9d9dfef7b0c764736f6c63430008190033",
					"opcodes": "PUSH1 0x80 PUSH1 0x40 MSTORE PUSH1 0x1 PUSH0 SSTORE PUSH1 0x1 DUP1 SSTORE CALLVALUE DUP1 ISZERO PUSH1 0x16 JUMPI PUSH0 DUP1 REVERT JUMPDEST POP PUSH2 0x107 DUP1 PUSH2 0x24 PUSH0 CODECOPY PUSH0 RETURN INVALID PUSH1 0x80 PUSH1 0x40 MSTORE CALLVALUE DUP1 ISZERO PUSH1 0xE JUMPI PUSH0 DUP1 REVERT JUMPDEST POP PUSH1 0x4 CALLDATASIZE LT PUSH1 0x3A JUMPI PUSH0 CALLDATALOAD PUSH1 0xE0 SHR DUP1 PUSH4 0x6540F7E EQ PUSH1 0x3E JUMPI DUP1 PUSH4 0x20965255 EQ PUSH1 0x58 JUMPI DUP1 PUSH4 0x41D35AC2 EQ PUSH1 0x72 JUMPI JUMPDEST PUSH0 DUP1 REVERT JUMPDEST PUSH1 0x44 PUSH1 0x8C JUMP JUMPDEST PUSH1 0x40 MLOAD PUSH1 0x4F SWAP2 SWAP1 PUSH1 0xBA JUMP JUMPDEST PUSH1 0x40 MLOAD DUP1 SWAP2 SUB SWAP1 RETURN JUMPDEST PUSH1 0x5E PUSH1 0x91 JUMP JUMPDEST PUSH1 0x40 MLOAD PUSH1 0x69 SWAP2 SWAP1 PUSH1 0xBA JUMP JUMPDEST PUSH1 0x40 MLOAD DUP1 SWAP2 SUB SWAP1 RETURN JUMPDEST PUSH1 0x78 PUSH1 0x9E JUMP JUMPDEST PUSH1 0x40 MLOAD PUSH1 0x83 SWAP2 SWAP1 PUSH1 0xBA JUMP JUMPDEST PUSH1 0x40 MLOAD DUP1 SWAP2 SUB SWAP1 RETURN JUMPDEST PUSH0 SLOAD DUP2 JUMP JUMPDEST PUSH0 DUP1 PUSH1 0x1 SWAP1 POP DUP1 SWAP2 POP POP SWAP1 JUMP JUMPDEST PUSH1 0x1 SLOAD DUP2 JUMP JUMPDEST PUSH0 DUP2 SWAP1 POP SWAP2 SWAP1 POP JUMP JUMPDEST PUSH1 0xB4 DUP2 PUSH1 0xA4 JUMP JUMPDEST DUP3 MSTORE POP POP JUMP JUMPDEST PUSH0 PUSH1 0x20 DUP3 ADD SWAP1 POP PUSH1 0xCB PUSH0 DUP4 ADD DUP5 PUSH1 0xAD JUMP JUMPDEST SWAP3 SWAP2 POP POP JUMP INVALID LOG2 PUSH5 0x6970667358 0x22 SLT KECCAK256 TSTORE 0xE5 CODECOPY SWAP4 0xF8 0xEC 0xDB PUSH8 0x907BA4692957AA5C CREATE 0xA9 CALLER PUSH27 0xC3CFDB2CCADC9D9DFEF7B0C764736F6C6343000819003300000000 "
				},
				"gasEstimates": {
					"creation": {
						"codeDepositCost": "52600",
						"executionCost": "44314",
						"totalCost": "96914"
					},
					"external": {
						"getValue()": "345",
						"myUint()": "2402",
						"myUint1()": "2447"
					}
				},
				"methodIdentifiers": {
					"getValue()": "20965255",
					"myUint()": "06540f7e",
					"myUint1()": "41d35ac2"
				}
			},
			"storageLayout": {
				"storage": [
					{
						"astId": 4,
						"contract": "contracts/MyContract.sol:MyContract",
						"label": "myUint",
						"offset": 0,
						"slot": "0",
						"type": "t_uint256"
					},
					{
						"astId": 7,
						"contract": "contracts/MyContract.sol:MyContract",
						"label": "myUint1",
						"offset": 0,
						"slot": "1",
						"type": "t_uint256"
					}
				],
				"types": {
					"t_uint256": {
						"encoding": "inplace",
						"label": "uint256",
						"numberOfBytes": "32"
					}
				}
			},
			"userdoc": {
				"kind": "user",
				"methods": {},
				"version": 1
			}
		}
	}
}