{
	"contracts/3_Ballot.sol": {
		"Inbox": {
			"abi": [
				{
					"inputs": [
						{
							"internalType": "string",
							"name": "initialMessage",
							"type": "string"
						}
					],
					"stateMutability": "nonpayable",
					"type": "constructor"
				},
				{
					"inputs": [],
					"name": "getMessage",
					"outputs": [
						{
							"internalType": "string",
							"name": "",
							"type": "string"
						}
					],
					"stateMutability": "view",
					"type": "function"
				},
				{
					"inputs": [],
					"name": "message",
					"outputs": [
						{
							"internalType": "string",
							"name": "",
							"type": "string"
						}
					],
					"stateMutability": "view",
					"type": "function"
				},
				{
					"inputs": [
						{
							"internalType": "string",
							"name": "newMessage",
							"type": "string"
						}
					],
					"name": "setMessage",
					"outputs": [],
					"stateMutability": "nonpayable",
					"type": "function"
				}
			],
			"devdoc": {
				"kind": "dev",
				"methods": {},
				"version": 1
			},
			"evm": {
				"assembly": "    /* \"contracts/3_Ballot.sol\":63:402  contract Inbox {... */\n  mstore(0x40, 0x80)\n    /* \"contracts/3_Ballot.sol\":84:115  string public message = \"aaaa1\" */\n  mload(0x40)\n  dup1\n  0x40\n  add\n  0x40\n  mstore\n  dup1\n  0x05\n  dup2\n  mstore\n  0x20\n  add\n  0x6161616131000000000000000000000000000000000000000000000000000000\n  dup2\n  mstore\n  pop\n  0x00\n  swap1\n  dup2\n  tag_1\n  swap2\n  swap1\n  tag_2\n  jump\t// in\ntag_1:\n  pop\n    /* \"contracts/3_Ballot.sol\":122:207  constructor (string memory initialMessage)  {... */\n  callvalue\n  dup1\n  iszero\n  tag_3\n  jumpi\n  revert(0x00, 0x00)\ntag_3:\n  pop\n  mload(0x40)\n  sub(codesize, bytecodeSize)\n  dup1\n  bytecodeSize\n  dup4\n  codecopy\n  dup2\n  dup2\n  add\n  0x40\n  mstore\n  dup2\n  add\n  swap1\n  tag_4\n  swap2\n  swap1\n  tag_5\n  jump\t// in\ntag_4:\n    /* \"contracts/3_Ballot.sol\":186:200  initialMessage */\n  dup1\n    /* \"contracts/3_Ballot.sol\":176:183  message */\n  0x00\n    /* \"contracts/3_Ballot.sol\":176:200  message = initialMessage */\n  swap1\n  dup2\n  tag_8\n  swap2\n  swap1\n  tag_2\n  jump\t// in\ntag_8:\n  pop\n    /* \"contracts/3_Ballot.sol\":122:207  constructor (string memory initialMessage)  {... */\n  pop\n    /* \"contracts/3_Ballot.sol\":63:402  contract Inbox {... */\n  jump(tag_9)\n    /* \"#utility.yul\":7:106   */\ntag_10:\n    /* \"#utility.yul\":59:65   */\n  0x00\n    /* \"#utility.yul\":93:98   */\n  dup2\n    /* \"#utility.yul\":87:99   */\n  mload\n    /* \"#utility.yul\":77:99   */\n  swap1\n  pop\n    /* \"#utility.yul\":7:106   */\n  swap2\n  swap1\n  pop\n  jump\t// out\n    /* \"#utility.yul\":112:292   */\ntag_11:\n    /* \"#utility.yul\":160:237   */\n  0x4e487b7100000000000000000000000000000000000000000000000000000000\n    /* \"#utility.yul\":157:158   */\n  0x00\n    /* \"#utility.yul\":150:238   */\n  mstore\n    /* \"#utility.yul\":257:261   */\n  0x41\n    /* \"#utility.yul\":254:255   */\n  0x04\n    /* \"#utility.yul\":247:262   */\n  mstore\n    /* \"#utility.yul\":281:285   */\n  0x24\n    /* \"#utility.yul\":278:279   */\n  0x00\n    /* \"#utility.yul\":271:286   */\n  revert\n    /* \"#utility.yul\":298:478   */\ntag_12:\n    /* \"#utility.yul\":346:423   */\n  0x4e487b7100000000000000000000000000000000000000000000000000000000\n    /* \"#utility.yul\":343:344   */\n  0x00\n    /* \"#utility.yul\":336:424   */\n  mstore\n    /* \"#utility.yul\":443:447   */\n  0x22\n    /* \"#utility.yul\":440:441   */\n  0x04\n    /* \"#utility.yul\":433:448   */\n  mstore\n    /* \"#utility.yul\":467:471   */\n  0x24\n    /* \"#utility.yul\":464:465   */\n  0x00\n    /* \"#utility.yul\":457:472   */\n  revert\n    /* \"#utility.yul\":484:804   */\ntag_13:\n    /* \"#utility.yul\":528:534   */\n  0x00\n    /* \"#utility.yul\":565:566   */\n  0x02\n    /* \"#utility.yul\":559:563   */\n  dup3\n    /* \"#utility.yul\":555:567   */\n  div\n    /* \"#utility.yul\":545:567   */\n  swap1\n  pop\n    /* \"#utility.yul\":612:613   */\n  0x01\n    /* \"#utility.yul\":606:610   */\n  dup3\n    /* \"#utility.yul\":602:614   */\n  and\n    /* \"#utility.yul\":633:651   */\n  dup1\n    /* \"#utility.yul\":623:704   */\n  tag_47\n  jumpi\n    /* \"#utility.yul\":689:693   */\n  0x7f\n    /* \"#utility.yul\":681:687   */\n  dup3\n    /* \"#utility.yul\":677:694   */\n  and\n    /* \"#utility.yul\":667:694   */\n  swap2\n  pop\n    /* \"#utility.yul\":623:704   */\ntag_47:\n    /* \"#utility.yul\":751:753   */\n  0x20\n    /* \"#utility.yul\":743:749   */\n  dup3\n    /* \"#utility.yul\":740:754   */\n  lt\n    /* \"#utility.yul\":720:738   */\n  dup2\n    /* \"#utility.yul\":717:755   */\n  sub\n    /* \"#utility.yul\":714:798   */\n  tag_48\n  jumpi\n    /* \"#utility.yul\":770:788   */\n  tag_49\n  tag_12\n  jump\t// in\ntag_49:\n    /* \"#utility.yul\":714:798   */\ntag_48:\n    /* \"#utility.yul\":535:804   */\n  pop\n    /* \"#utility.yul\":484:804   */\n  swap2\n  swap1\n  pop\n  jump\t// out\n    /* \"#utility.yul\":810:951   */\ntag_14:\n    /* \"#utility.yul\":859:863   */\n  0x00\n    /* \"#utility.yul\":882:885   */\n  dup2\n    /* \"#utility.yul\":874:885   */\n  swap1\n  pop\n    /* \"#utility.yul\":905:908   */\n  dup2\n    /* \"#utility.yul\":902:903   */\n  0x00\n    /* \"#utility.yul\":895:909   */\n  mstore\n    /* \"#utility.yul\":939:943   */\n  0x20\n    /* \"#utility.yul\":936:937   */\n  0x00\n    /* \"#utility.yul\":926:944   */\n  keccak256\n    /* \"#utility.yul\":918:944   */\n  swap1\n  pop\n    /* \"#utility.yul\":810:951   */\n  swap2\n  swap1\n  pop\n  jump\t// out\n    /* \"#utility.yul\":957:1050   */\ntag_15:\n    /* \"#utility.yul\":994:1000   */\n  0x00\n    /* \"#utility.yul\":1041:1043   */\n  0x20\n    /* \"#utility.yul\":1036:1038   */\n  0x1f\n    /* \"#utility.yul\":1029:1034   */\n  dup4\n    /* \"#utility.yul\":1025:1039   */\n  add\n    /* \"#utility.yul\":1021:1044   */\n  div\n    /* \"#utility.yul\":1011:1044   */\n  swap1\n  pop\n    /* \"#utility.yul\":957:1050   */\n  swap2\n  swap1\n  pop\n  jump\t// out\n    /* \"#utility.yul\":1056:1163   */\ntag_16:\n    /* \"#utility.yul\":1100:1108   */\n  0x00\n    /* \"#utility.yul\":1150:1155   */\n  dup3\n    /* \"#utility.yul\":1144:1148   */\n  dup3\n    /* \"#utility.yul\":1140:1156   */\n  shl\n    /* \"#utility.yul\":1119:1156   */\n  swap1\n  pop\n    /* \"#utility.yul\":1056:1163   */\n  swap3\n  swap2\n  pop\n  pop\n  jump\t// out\n    /* \"#utility.yul\":1169:1562   */\ntag_17:\n    /* \"#utility.yul\":1238:1244   */\n  0x00\n    /* \"#utility.yul\":1288:1289   */\n  0x08\n    /* \"#utility.yul\":1276:1286   */\n  dup4\n    /* \"#utility.yul\":1272:1290   */\n  mul\n    /* \"#utility.yul\":1311:1408   */\n  tag_54\n    /* \"#utility.yul\":1341:1407   */\n  0xffffffffffffffffffffffffffffffffffffffffffffffffffffffffffffffff\n    /* \"#utility.yul\":1330:1339   */\n  dup3\n    /* \"#utility.yul\":1311:1408   */\n  tag_16\n  jump\t// in\ntag_54:\n    /* \"#utility.yul\":1429:1468   */\n  tag_55\n    /* \"#utility.yul\":1459:1467   */\n  dup7\n    /* \"#utility.yul\":1448:1457   */\n  dup4\n    /* \"#utility.yul\":1429:1468   */\n  tag_16\n  jump\t// in\ntag_55:\n    /* \"#utility.yul\":1417:1468   */\n  swap6\n  pop\n    /* \"#utility.yul\":1501:1505   */\n  dup1\n    /* \"#utility.yul\":1497:1506   */\n  not\n    /* \"#utility.yul\":1490:1495   */\n  dup5\n    /* \"#utility.yul\":1486:1507   */\n  and\n    /* \"#utility.yul\":1477:1507   */\n  swap4\n  pop\n    /* \"#utility.yul\":1550:1554   */\n  dup1\n    /* \"#utility.yul\":1540:1548   */\n  dup7\n    /* \"#utility.yul\":1536:1555   */\n  and\n    /* \"#utility.yul\":1529:1534   */\n  dup5\n    /* \"#utility.yul\":1526:1556   */\n  or\n    /* \"#utility.yul\":1516:1556   */\n  swap3\n  pop\n    /* \"#utility.yul\":1245:1562   */\n  pop\n  pop\n    /* \"#utility.yul\":1169:1562   */\n  swap4\n  swap3\n  pop\n  pop\n  pop\n  jump\t// out\n    /* \"#utility.yul\":1568:1645   */\ntag_18:\n    /* \"#utility.yul\":1605:1612   */\n  0x00\n    /* \"#utility.yul\":1634:1639   */\n  dup2\n    /* \"#utility.yul\":1623:1639   */\n  swap1\n  pop\n    /* \"#utility.yul\":1568:1645   */\n  swap2\n  swap1\n  pop\n  jump\t// out\n    /* \"#utility.yul\":1651:1711   */\ntag_19:\n    /* \"#utility.yul\":1679:1682   */\n  0x00\n    /* \"#utility.yul\":1700:1705   */\n  dup2\n    /* \"#utility.yul\":1693:1705   */\n  swap1\n  pop\n    /* \"#utility.yul\":1651:1711   */\n  swap2\n  swap1\n  pop\n  jump\t// out\n    /* \"#utility.yul\":1717:1859   */\ntag_20:\n    /* \"#utility.yul\":1767:1776   */\n  0x00\n    /* \"#utility.yul\":1800:1853   */\n  tag_59\n    /* \"#utility.yul\":1818:1852   */\n  tag_60\n    /* \"#utility.yul\":1827:1851   */\n  tag_61\n    /* \"#utility.yul\":1845:1850   */\n  dup5\n    /* \"#utility.yul\":1827:1851   */\n  tag_18\n  jump\t// in\ntag_61:\n    /* \"#utility.yul\":1818:1852   */\n  tag_19\n  jump\t// in\ntag_60:\n    /* \"#utility.yul\":1800:1853   */\n  tag_18\n  jump\t// in\ntag_59:\n    /* \"#utility.yul\":1787:1853   */\n  swap1\n  pop\n    /* \"#utility.yul\":1717:1859   */\n  swap2\n  swap1\n  pop\n  jump\t// out\n    /* \"#utility.yul\":1865:1940   */\ntag_21:\n    /* \"#utility.yul\":1908:1911   */\n  0x00\n    /* \"#utility.yul\":1929:1934   */\n  dup2\n    /* \"#utility.yul\":1922:1934   */\n  swap1\n  pop\n    /* \"#utility.yul\":1865:1940   */\n  swap2\n  swap1\n  pop\n  jump\t// out\n    /* \"#utility.yul\":1946:2215   */\ntag_22:\n    /* \"#utility.yul\":2056:2095   */\n  tag_64\n    /* \"#utility.yul\":2087:2094   */\n  dup4\n    /* \"#utility.yul\":2056:2095   */\n  tag_20\n  jump\t// in\ntag_64:\n    /* \"#utility.yul\":2117:2208   */\n  tag_65\n    /* \"#utility.yul\":2166:2207   */\n  tag_66\n    /* \"#utility.yul\":2190:2206   */\n  dup3\n    /* \"#utility.yul\":2166:2207   */\n  tag_21\n  jump\t// in\ntag_66:\n    /* \"#utility.yul\":2158:2164   */\n  dup5\n    /* \"#utility.yul\":2151:2155   */\n  dup5\n    /* \"#utility.yul\":2145:2156   */\n  sload\n    /* \"#utility.yul\":2117:2208   */\n  tag_17\n  jump\t// in\ntag_65:\n    /* \"#utility.yul\":2111:2115   */\n  dup3\n    /* \"#utility.yul\":2104:2209   */\n  sstore\n    /* \"#utility.yul\":2022:2215   */\n  pop\n    /* \"#utility.yul\":1946:2215   */\n  pop\n  pop\n  pop\n  jump\t// out\n    /* \"#utility.yul\":2221:2294   */\ntag_23:\n    /* \"#utility.yul\":2266:2269   */\n  0x00\n    /* \"#utility.yul\":2287:2288   */\n  0x00\n    /* \"#utility.yul\":2280:2288   */\n  swap1\n  pop\n    /* \"#utility.yul\":2221:2294   */\n  swap1\n  jump\t// out\n    /* \"#utility.yul\":2300:2489   */\ntag_24:\n    /* \"#utility.yul\":2377:2409   */\n  tag_69\n  tag_23\n  jump\t// in\ntag_69:\n    /* \"#utility.yul\":2418:2483   */\n  tag_70\n    /* \"#utility.yul\":2476:2482   */\n  dup2\n    /* \"#utility.yul\":2468:2474   */\n  dup5\n    /* \"#utility.yul\":2462:2466   */\n  dup5\n    /* \"#utility.yul\":2418:2483   */\n  tag_22\n  jump\t// in\ntag_70:\n    /* \"#utility.yul\":2353:2489   */\n  pop\n    /* \"#utility.yul\":2300:2489   */\n  pop\n  pop\n  jump\t// out\n    /* \"#utility.yul\":2495:2681   */\ntag_25:\n    /* \"#utility.yul\":2555:2675   */\ntag_72:\n    /* \"#utility.yul\":2572:2575   */\n  dup2\n    /* \"#utility.yul\":2565:2570   */\n  dup2\n    /* \"#utility.yul\":2562:2576   */\n  lt\n    /* \"#utility.yul\":2555:2675   */\n  iszero\n  tag_74\n  jumpi\n    /* \"#utility.yul\":2626:2665   */\n  tag_75\n    /* \"#utility.yul\":2663:2664   */\n  0x00\n    /* \"#utility.yul\":2656:2661   */\n  dup3\n    /* \"#utility.yul\":2626:2665   */\n  tag_24\n  jump\t// in\ntag_75:\n    /* \"#utility.yul\":2599:2600   */\n  0x01\n    /* \"#utility.yul\":2592:2597   */\n  dup2\n    /* \"#utility.yul\":2588:2601   */\n  add\n    /* \"#utility.yul\":2579:2601   */\n  swap1\n  pop\n    /* \"#utility.yul\":2555:2675   */\n  jump(tag_72)\ntag_74:\n    /* \"#utility.yul\":2495:2681   */\n  pop\n  pop\n  jump\t// out\n    /* \"#utility.yul\":2687:3230   */\ntag_26:\n    /* \"#utility.yul\":2788:2790   */\n  0x1f\n    /* \"#utility.yul\":2783:2786   */\n  dup3\n    /* \"#utility.yul\":2780:2791   */\n  gt\n    /* \"#utility.yul\":2777:3223   */\n  iszero\n  tag_77\n  jumpi\n    /* \"#utility.yul\":2822:2860   */\n  tag_78\n    /* \"#utility.yul\":2854:2859   */\n  dup2\n    /* \"#utility.yul\":2822:2860   */\n  tag_14\n  jump\t// in\ntag_78:\n    /* \"#utility.yul\":2906:2935   */\n  tag_79\n    /* \"#utility.yul\":2924:2934   */\n  dup5\n    /* \"#utility.yul\":2906:2935   */\n  tag_15\n  jump\t// in\ntag_79:\n    /* \"#utility.yul\":2896:2904   */\n  dup2\n    /* \"#utility.yul\":2892:2936   */\n  add\n    /* \"#utility.yul\":3089:3091   */\n  0x20\n    /* \"#utility.yul\":3077:3087   */\n  dup6\n    /* \"#utility.yul\":3074:3092   */\n  lt\n    /* \"#utility.yul\":3071:3120   */\n  iszero\n  tag_80\n  jumpi\n    /* \"#utility.yul\":3110:3118   */\n  dup2\n    /* \"#utility.yul\":3095:3118   */\n  swap1\n  pop\n    /* \"#utility.yul\":3071:3120   */\ntag_80:\n    /* \"#utility.yul\":3133:3213   */\n  tag_81\n    /* \"#utility.yul\":3189:3211   */\n  tag_82\n    /* \"#utility.yul\":3207:3210   */\n  dup6\n    /* \"#utility.yul\":3189:3211   */\n  tag_15\n  jump\t// in\ntag_82:\n    /* \"#utility.yul\":3179:3187   */\n  dup4\n    /* \"#utility.yul\":3175:3212   */\n  add\n    /* \"#utility.yul\":3162:3173   */\n  dup3\n    /* \"#utility.yul\":3133:3213   */\n  tag_25\n  jump\t// in\ntag_81:\n    /* \"#utility.yul\":2792:3223   */\n  pop\n  pop\n    /* \"#utility.yul\":2777:3223   */\ntag_77:\n    /* \"#utility.yul\":2687:3230   */\n  pop\n  pop\n  pop\n  jump\t// out\n    /* \"#utility.yul\":3236:3353   */\ntag_27:\n    /* \"#utility.yul\":3290:3298   */\n  0x00\n    /* \"#utility.yul\":3340:3345   */\n  dup3\n    /* \"#utility.yul\":3334:3338   */\n  dup3\n    /* \"#utility.yul\":3330:3346   */\n  shr\n    /* \"#utility.yul\":3309:3346   */\n  swap1\n  pop\n    /* \"#utility.yul\":3236:3353   */\n  swap3\n  swap2\n  pop\n  pop\n  jump\t// out\n    /* \"#utility.yul\":3359:3528   */\ntag_28:\n    /* \"#utility.yul\":3403:3409   */\n  0x00\n    /* \"#utility.yul\":3436:3487   */\n  tag_85\n    /* \"#utility.yul\":3484:3485   */\n  0x00\n    /* \"#utility.yul\":3480:3486   */\n  not\n    /* \"#utility.yul\":3472:3477   */\n  dup5\n    /* \"#utility.yul\":3469:3470   */\n  0x08\n    /* \"#utility.yul\":3465:3478   */\n  mul\n    /* \"#utility.yul\":3436:3487   */\n  tag_27\n  jump\t// in\ntag_85:\n    /* \"#utility.yul\":3432:3488   */\n  not\n    /* \"#utility.yul\":3517:3521   */\n  dup1\n    /* \"#utility.yul\":3511:3515   */\n  dup4\n    /* \"#utility.yul\":3507:3522   */\n  and\n    /* \"#utility.yul\":3497:3522   */\n  swap2\n  pop\n    /* \"#utility.yul\":3410:3528   */\n  pop\n    /* \"#utility.yul\":3359:3528   */\n  swap3\n  swap2\n  pop\n  pop\n  jump\t// out\n    /* \"#utility.yul\":3533:3828   */\ntag_29:\n    /* \"#utility.yul\":3609:3613   */\n  0x00\n    /* \"#utility.yul\":3755:3784   */\n  tag_87\n    /* \"#utility.yul\":3780:3783   */\n  dup4\n    /* \"#utility.yul\":3774:3778   */\n  dup4\n    /* \"#utility.yul\":3755:3784   */\n  tag_28\n  jump\t// in\ntag_87:\n    /* \"#utility.yul\":3747:3784   */\n  swap2\n  pop\n    /* \"#utility.yul\":3817:3820   */\n  dup3\n    /* \"#utility.yul\":3814:3815   */\n  0x02\n    /* \"#utility.yul\":3810:3821   */\n  mul\n    /* \"#utility.yul\":3804:3808   */\n  dup3\n    /* \"#utility.yul\":3801:3822   */\n  or\n    /* \"#utility.yul\":3793:3822   */\n  swap1\n  pop\n    /* \"#utility.yul\":3533:3828   */\n  swap3\n  swap2\n  pop\n  pop\n  jump\t// out\n    /* \"#utility.yul\":3833:5228   */\ntag_2:\n    /* \"#utility.yul\":3950:3987   */\n  tag_89\n    /* \"#utility.yul\":3983:3986   */\n  dup3\n    /* \"#utility.yul\":3950:3987   */\n  tag_10\n  jump\t// in\ntag_89:\n    /* \"#utility.yul\":4052:4070   */\n  0xffffffffffffffff\n    /* \"#utility.yul\":4044:4050   */\n  dup2\n    /* \"#utility.yul\":4041:4071   */\n  gt\n    /* \"#utility.yul\":4038:4094   */\n  iszero\n  tag_90\n  jumpi\n    /* \"#utility.yul\":4074:4092   */\n  tag_91\n  tag_11\n  jump\t// in\ntag_91:\n    /* \"#utility.yul\":4038:4094   */\ntag_90:\n    /* \"#utility.yul\":4118:4156   */\n  tag_92\n    /* \"#utility.yul\":4150:4154   */\n  dup3\n    /* \"#utility.yul\":4144:4155   */\n  sload\n    /* \"#utility.yul\":4118:4156   */\n  tag_13\n  jump\t// in\ntag_92:\n    /* \"#utility.yul\":4203:4270   */\n  tag_93\n    /* \"#utility.yul\":4263:4269   */\n  dup3\n    /* \"#utility.yul\":4255:4261   */\n  dup3\n    /* \"#utility.yul\":4249:4253   */\n  dup6\n    /* \"#utility.yul\":4203:4270   */\n  tag_26\n  jump\t// in\ntag_93:\n    /* \"#utility.yul\":4297:4298   */\n  0x00\n    /* \"#utility.yul\":4321:4325   */\n  0x20\n    /* \"#utility.yul\":4308:4325   */\n  swap1\n  pop\n    /* \"#utility.yul\":4353:4355   */\n  0x1f\n    /* \"#utility.yul\":4345:4351   */\n  dup4\n    /* \"#utility.yul\":4342:4356   */\n  gt\n    /* \"#utility.yul\":4370:4371   */\n  0x01\n    /* \"#utility.yul\":4365:4983   */\n  dup2\n  eq\n  tag_95\n  jumpi\n    /* \"#utility.yul\":5027:5028   */\n  0x00\n    /* \"#utility.yul\":5044:5050   */\n  dup5\n    /* \"#utility.yul\":5041:5118   */\n  iszero\n  tag_96\n  jumpi\n    /* \"#utility.yul\":5093:5102   */\n  dup3\n    /* \"#utility.yul\":5088:5091   */\n  dup8\n    /* \"#utility.yul\":5084:5103   */\n  add\n    /* \"#utility.yul\":5078:5104   */\n  mload\n    /* \"#utility.yul\":5069:5104   */\n  swap1\n  pop\n    /* \"#utility.yul\":5041:5118   */\ntag_96:\n    /* \"#utility.yul\":5144:5211   */\n  tag_97\n    /* \"#utility.yul\":5204:5210   */\n  dup6\n    /* \"#utility.yul\":5197:5202   */\n  dup3\n    /* \"#utility.yul\":5144:5211   */\n  tag_29\n  jump\t// in\ntag_97:\n    /* \"#utility.yul\":5138:5142   */\n  dup7\n    /* \"#utility.yul\":5131:5212   */\n  sstore\n    /* \"#utility.yul\":5000:5222   */\n  pop\n    /* \"#utility.yul\":4335:5222   */\n  jump(tag_94)\n    /* \"#utility.yul\":4365:4983   */\ntag_95:\n    /* \"#utility.yul\":4417:4421   */\n  0x1f\n    /* \"#utility.yul\":4413:4422   */\n  not\n    /* \"#utility.yul\":4405:4411   */\n  dup5\n    /* \"#utility.yul\":4401:4423   */\n  and\n    /* \"#utility.yul\":4451:4488   */\n  tag_98\n    /* \"#utility.yul\":4483:4487   */\n  dup7\n    /* \"#utility.yul\":4451:4488   */\n  tag_14\n  jump\t// in\ntag_98:\n    /* \"#utility.yul\":4510:4511   */\n  0x00\n    /* \"#utility.yul\":4524:4732   */\ntag_99:\n    /* \"#utility.yul\":4538:4545   */\n  dup3\n    /* \"#utility.yul\":4535:4536   */\n  dup2\n    /* \"#utility.yul\":4532:4546   */\n  lt\n    /* \"#utility.yul\":4524:4732   */\n  iszero\n  tag_101\n  jumpi\n    /* \"#utility.yul\":4617:4626   */\n  dup5\n    /* \"#utility.yul\":4612:4615   */\n  dup10\n    /* \"#utility.yul\":4608:4627   */\n  add\n    /* \"#utility.yul\":4602:4628   */\n  mload\n    /* \"#utility.yul\":4594:4600   */\n  dup3\n    /* \"#utility.yul\":4587:4629   */\n  sstore\n    /* \"#utility.yul\":4668:4669   */\n  0x01\n    /* \"#utility.yul\":4660:4666   */\n  dup3\n    /* \"#utility.yul\":4656:4670   */\n  add\n    /* \"#utility.yul\":4646:4670   */\n  swap2\n  pop\n    /* \"#utility.yul\":4715:4717   */\n  0x20\n    /* \"#utility.yul\":4704:4713   */\n  dup6\n    /* \"#utility.yul\":4700:4718   */\n  add\n    /* \"#utility.yul\":4687:4718   */\n  swap5\n  pop\n    /* \"#utility.yul\":4561:4565   */\n  0x20\n    /* \"#utility.yul\":4558:4559   */\n  dup2\n    /* \"#utility.yul\":4554:4566   */\n  add\n    /* \"#utility.yul\":4549:4566   */\n  swap1\n  pop\n    /* \"#utility.yul\":4524:4732   */\n  jump(tag_99)\ntag_101:\n    /* \"#utility.yul\":4760:4766   */\n  dup7\n    /* \"#utility.yul\":4751:4758   */\n  dup4\n    /* \"#utility.yul\":4748:4767   */\n  lt\n    /* \"#utility.yul\":4745:4924   */\n  iszero\n  tag_102\n  jumpi\n    /* \"#utility.yul\":4818:4827   */\n  dup5\n    /* \"#utility.yul\":4813:4816   */\n  dup10\n    /* \"#utility.yul\":4809:4828   */\n  add\n    /* \"#utility.yul\":4803:4829   */\n  mload\n    /* \"#utility.yul\":4861:4909   */\n  tag_103\n    /* \"#utility.yul\":4903:4907   */\n  0x1f\n    /* \"#utility.yul\":4895:4901   */\n  dup10\n    /* \"#utility.yul\":4891:4908   */\n  and\n    /* \"#utility.yul\":4880:4889   */\n  dup3\n    /* \"#utility.yul\":4861:4909   */\n  tag_28\n  jump\t// in\ntag_103:\n    /* \"#utility.yul\":4853:4859   */\n  dup4\n    /* \"#utility.yul\":4846:4910   */\n  sstore\n    /* \"#utility.yul\":4768:4924   */\n  pop\n    /* \"#utility.yul\":4745:4924   */\ntag_102:\n    /* \"#utility.yul\":4970:4971   */\n  0x01\n    /* \"#utility.yul\":4966:4967   */\n  0x02\n    /* \"#utility.yul\":4958:4964   */\n  dup9\n    /* \"#utility.yul\":4954:4968   */\n  mul\n    /* \"#utility.yul\":4950:4972   */\n  add\n    /* \"#utility.yul\":4944:4948   */\n  dup9\n    /* \"#utility.yul\":4937:4973   */\n  sstore\n    /* \"#utility.yul\":4372:4983   */\n  pop\n  pop\n  pop\n    /* \"#utility.yul\":4335:5222   */\ntag_94:\n  pop\n    /* \"#utility.yul\":3925:5228   */\n  pop\n  pop\n  pop\n    /* \"#utility.yul\":3833:5228   */\n  pop\n  pop\n  jump\t// out\n    /* \"#utility.yul\":5234:5309   */\ntag_30:\n    /* \"#utility.yul\":5267:5273   */\n  0x00\n    /* \"#utility.yul\":5300:5302   */\n  0x40\n    /* \"#utility.yul\":5294:5303   */\n  mload\n    /* \"#utility.yul\":5284:5303   */\n  swap1\n  pop\n    /* \"#utility.yul\":5234:5309   */\n  swap1\n  jump\t// out\n    /* \"#utility.yul\":5315:5432   */\ntag_31:\n    /* \"#utility.yul\":5424:5425   */\n  0x00\n    /* \"#utility.yul\":5421:5422   */\n  0x00\n    /* \"#utility.yul\":5414:5426   */\n  revert\n    /* \"#utility.yul\":5438:5555   */\ntag_32:\n    /* \"#utility.yul\":5547:5548   */\n  0x00\n    /* \"#utility.yul\":5544:5545   */\n  0x00\n    /* \"#utility.yul\":5537:5549   */\n  revert\n    /* \"#utility.yul\":5561:5678   */\ntag_33:\n    /* \"#utility.yul\":5670:5671   */\n  0x00\n    /* \"#utility.yul\":5667:5668   */\n  0x00\n    /* \"#utility.yul\":5660:5672   */\n  revert\n    /* \"#utility.yul\":5684:5801   */\ntag_34:\n    /* \"#utility.yul\":5793:5794   */\n  0x00\n    /* \"#utility.yul\":5790:5791   */\n  0x00\n    /* \"#utility.yul\":5783:5795   */\n  revert\n    /* \"#utility.yul\":5807:5909   */\ntag_35:\n    /* \"#utility.yul\":5848:5854   */\n  0x00\n    /* \"#utility.yul\":5899:5901   */\n  0x1f\n    /* \"#utility.yul\":5895:5902   */\n  not\n    /* \"#utility.yul\":5890:5892   */\n  0x1f\n    /* \"#utility.yul\":5883:5888   */\n  dup4\n    /* \"#utility.yul\":5879:5893   */\n  add\n    /* \"#utility.yul\":5875:5903   */\n  and\n    /* \"#utility.yul\":5865:5903   */\n  swap1\n  pop\n    /* \"#utility.yul\":5807:5909   */\n  swap2\n  swap1\n  pop\n  jump\t// out\n    /* \"#utility.yul\":5915:6196   */\ntag_36:\n    /* \"#utility.yul\":5998:6025   */\n  tag_111\n    /* \"#utility.yul\":6020:6024   */\n  dup3\n    /* \"#utility.yul\":5998:6025   */\n  tag_35\n  jump\t// in\ntag_111:\n    /* \"#utility.yul\":5990:5996   */\n  dup2\n    /* \"#utility.yul\":5986:6026   */\n  add\n    /* \"#utility.yul\":6128:6134   */\n  dup2\n    /* \"#utility.yul\":6116:6126   */\n  dup2\n    /* \"#utility.yul\":6113:6135   */\n  lt\n    /* \"#utility.yul\":6092:6110   */\n  0xffffffffffffffff\n    /* \"#utility.yul\":6080:6090   */\n  dup3\n    /* \"#utility.yul\":6077:6111   */\n  gt\n    /* \"#utility.yul\":6074:6136   */\n  or\n    /* \"#utility.yul\":6071:6159   */\n  iszero\n  tag_112\n  jumpi\n    /* \"#utility.yul\":6139:6157   */\n  tag_113\n  tag_11\n  jump\t// in\ntag_113:\n    /* \"#utility.yul\":6071:6159   */\ntag_112:\n    /* \"#utility.yul\":6179:6189   */\n  dup1\n    /* \"#utility.yul\":6175:6177   */\n  0x40\n    /* \"#utility.yul\":6168:6190   */\n  mstore\n    /* \"#utility.yul\":5958:6196   */\n  pop\n    /* \"#utility.yul\":5915:6196   */\n  pop\n  pop\n  jump\t// out\n    /* \"#utility.yul\":6202:6331   */\ntag_37:\n    /* \"#utility.yul\":6236:6242   */\n  0x00\n    /* \"#utility.yul\":6263:6283   */\n  tag_115\n  tag_30\n  jump\t// in\ntag_115:\n    /* \"#utility.yul\":6253:6283   */\n  swap1\n  pop\n    /* \"#utility.yul\":6292:6325   */\n  tag_116\n    /* \"#utility.yul\":6320:6324   */\n  dup3\n    /* \"#utility.yul\":6312:6318   */\n  dup3\n    /* \"#utility.yul\":6292:6325   */\n  tag_36\n  jump\t// in\ntag_116:\n    /* \"#utility.yul\":6202:6331   */\n  swap2\n  swap1\n  pop\n  jump\t// out\n    /* \"#utility.yul\":6337:6645   */\ntag_38:\n    /* \"#utility.yul\":6399:6403   */\n  0x00\n    /* \"#utility.yul\":6489:6507   */\n  0xffffffffffffffff\n    /* \"#utility.yul\":6481:6487   */\n  dup3\n    /* \"#utility.yul\":6478:6508   */\n  gt\n    /* \"#utility.yul\":6475:6531   */\n  iszero\n  tag_118\n  jumpi\n    /* \"#utility.yul\":6511:6529   */\n  tag_119\n  tag_11\n  jump\t// in\ntag_119:\n    /* \"#utility.yul\":6475:6531   */\ntag_118:\n    /* \"#utility.yul\":6549:6578   */\n  tag_120\n    /* \"#utility.yul\":6571:6577   */\n  dup3\n    /* \"#utility.yul\":6549:6578   */\n  tag_35\n  jump\t// in\ntag_120:\n    /* \"#utility.yul\":6541:6578   */\n  swap1\n  pop\n    /* \"#utility.yul\":6633:6637   */\n  0x20\n    /* \"#utility.yul\":6627:6631   */\n  dup2\n    /* \"#utility.yul\":6623:6638   */\n  add\n    /* \"#utility.yul\":6615:6638   */\n  swap1\n  pop\n    /* \"#utility.yul\":6337:6645   */\n  swap2\n  swap1\n  pop\n  jump\t// out\n    /* \"#utility.yul\":6651:6790   */\ntag_39:\n    /* \"#utility.yul\":6740:6746   */\n  dup3\n    /* \"#utility.yul\":6735:6738   */\n  dup2\n    /* \"#utility.yul\":6730:6733   */\n  dup4\n    /* \"#utility.yul\":6724:6747   */\n  mcopy\n    /* \"#utility.yul\":6781:6782   */\n  0x00\n    /* \"#utility.yul\":6772:6778   */\n  dup4\n    /* \"#utility.yul\":6767:6770   */\n  dup4\n    /* \"#utility.yul\":6763:6779   */\n  add\n    /* \"#utility.yul\":6756:6783   */\n  mstore\n    /* \"#utility.yul\":6651:6790   */\n  pop\n  pop\n  pop\n  jump\t// out\n    /* \"#utility.yul\":6796:7230   */\ntag_40:\n    /* \"#utility.yul\":6885:6890   */\n  0x00\n    /* \"#utility.yul\":6910:6976   */\n  tag_123\n    /* \"#utility.yul\":6926:6975   */\n  tag_124\n    /* \"#utility.yul\":6968:6974   */\n  dup5\n    /* \"#utility.yul\":6926:6975   */\n  tag_38\n  jump\t// in\ntag_124:\n    /* \"#utility.yul\":6910:6976   */\n  tag_37\n  jump\t// in\ntag_123:\n    /* \"#utility.yul\":6901:6976   */\n  swap1\n  pop\n    /* \"#utility.yul\":6999:7005   */\n  dup3\n    /* \"#utility.yul\":6992:6997   */\n  dup2\n    /* \"#utility.yul\":6985:7006   */\n  mstore\n    /* \"#utility.yul\":7037:7041   */\n  0x20\n    /* \"#utility.yul\":7030:7035   */\n  dup2\n    /* \"#utility.yul\":7026:7042   */\n  add\n    /* \"#utility.yul\":7075:7078   */\n  dup5\n    /* \"#utility.yul\":7066:7072   */\n  dup5\n    /* \"#utility.yul\":7061:7064   */\n  dup5\n    /* \"#utility.yul\":7057:7073   */\n  add\n    /* \"#utility.yul\":7054:7079   */\n  gt\n    /* \"#utility.yul\":7051:7163   */\n  iszero\n  tag_125\n  jumpi\n    /* \"#utility.yul\":7082:7161   */\n  tag_126\n  tag_34\n  jump\t// in\ntag_126:\n    /* \"#utility.yul\":7051:7163   */\ntag_125:\n    /* \"#utility.yul\":7172:7224   */\n  tag_127\n    /* \"#utility.yul\":7217:7223   */\n  dup5\n    /* \"#utility.yul\":7212:7215   */\n  dup3\n    /* \"#utility.yul\":7207:7210   */\n  dup6\n    /* \"#utility.yul\":7172:7224   */\n  tag_39\n  jump\t// in\ntag_127:\n    /* \"#utility.yul\":6891:7230   */\n  pop\n    /* \"#utility.yul\":6796:7230   */\n  swap4\n  swap3\n  pop\n  pop\n  pop\n  jump\t// out\n    /* \"#utility.yul\":7250:7605   */\ntag_41:\n    /* \"#utility.yul\":7317:7322   */\n  0x00\n    /* \"#utility.yul\":7366:7369   */\n  dup3\n    /* \"#utility.yul\":7359:7363   */\n  0x1f\n    /* \"#utility.yul\":7351:7357   */\n  dup4\n    /* \"#utility.yul\":7347:7364   */\n  add\n    /* \"#utility.yul\":7343:7370   */\n  slt\n    /* \"#utility.yul\":7333:7455   */\n  tag_129\n  jumpi\n    /* \"#utility.yul\":7374:7453   */\n  tag_130\n  tag_33\n  jump\t// in\ntag_130:\n    /* \"#utility.yul\":7333:7455   */\ntag_129:\n    /* \"#utility.yul\":7484:7490   */\n  dup2\n    /* \"#utility.yul\":7478:7491   */\n  mload\n    /* \"#utility.yul\":7509:7599   */\n  tag_131\n    /* \"#utility.yul\":7595:7598   */\n  dup5\n    /* \"#utility.yul\":7587:7593   */\n  dup3\n    /* \"#utility.yul\":7580:7584   */\n  0x20\n    /* \"#utility.yul\":7572:7578   */\n  dup7\n    /* \"#utility.yul\":7568:7585   */\n  add\n    /* \"#utility.yul\":7509:7599   */\n  tag_40\n  jump\t// in\ntag_131:\n    /* \"#utility.yul\":7500:7599   */\n  swap2\n  pop\n    /* \"#utility.yul\":7323:7605   */\n  pop\n    /* \"#utility.yul\":7250:7605   */\n  swap3\n  swap2\n  pop\n  pop\n  jump\t// out\n    /* \"#utility.yul\":7611:8135   */\ntag_5:\n    /* \"#utility.yul\":7691:7697   */\n  0x00\n    /* \"#utility.yul\":7740:7742   */\n  0x20\n    /* \"#utility.yul\":7728:7737   */\n  dup3\n    /* \"#utility.yul\":7719:7726   */\n  dup5\n    /* \"#utility.yul\":7715:7738   */\n  sub\n    /* \"#utility.yul\":7711:7743   */\n  slt\n    /* \"#utility.yul\":7708:7827   */\n  iszero\n  tag_133\n  jumpi\n    /* \"#utility.yul\":7746:7825   */\n  tag_134\n  tag_31\n  jump\t// in\ntag_134:\n    /* \"#utility.yul\":7708:7827   */\ntag_133:\n    /* \"#utility.yul\":7887:7888   */\n  0x00\n    /* \"#utility.yul\":7876:7885   */\n  dup3\n    /* \"#utility.yul\":7872:7889   */\n  add\n    /* \"#utility.yul\":7866:7890   */\n  mload\n    /* \"#utility.yul\":7917:7935   */\n  0xffffffffffffffff\n    /* \"#utility.yul\":7909:7915   */\n  dup2\n    /* \"#utility.yul\":7906:7936   */\n  gt\n    /* \"#utility.yul\":7903:8020   */\n  iszero\n  tag_135\n  jumpi\n    /* \"#utility.yul\":7939:8018   */\n  tag_136\n  tag_32\n  jump\t// in\ntag_136:\n    /* \"#utility.yul\":7903:8020   */\ntag_135:\n    /* \"#utility.yul\":8044:8118   */\n  tag_137\n    /* \"#utility.yul\":8110:8117   */\n  dup5\n    /* \"#utility.yul\":8101:8107   */\n  dup3\n    /* \"#utility.yul\":8090:8099   */\n  dup6\n    /* \"#utility.yul\":8086:8108   */\n  add\n    /* \"#utility.yul\":8044:8118   */\n  tag_41\n  jump\t// in\ntag_137:\n    /* \"#utility.yul\":8034:8118   */\n  swap2\n  pop\n    /* \"#utility.yul\":7837:8128   */\n  pop\n    /* \"#utility.yul\":7611:8135   */\n  swap3\n  swap2\n  pop\n  pop\n  jump\t// out\n    /* \"contracts/3_Ballot.sol\":63:402  contract Inbox {... */\ntag_9:\n  dataSize(sub_0)\n  dup1\n  dataOffset(sub_0)\n  0x00\n  codecopy\n  0x00\n  return\nstop\n\nsub_0: assembly {\n        /* \"contracts/3_Ballot.sol\":63:402  contract Inbox {... */\n      mstore(0x40, 0x80)\n      callvalue\n      dup1\n      iszero\n      tag_1\n      jumpi\n      revert(0x00, 0x00)\n    tag_1:\n      pop\n      jumpi(tag_2, lt(calldatasize, 0x04))\n      shr(0xe0, calldataload(0x00))\n      dup1\n      0x368b8772\n      eq\n      tag_3\n      jumpi\n      dup1\n      0xce6d41de\n      eq\n      tag_4\n      jumpi\n      dup1\n      0xe21f37ce\n      eq\n      tag_5\n      jumpi\n    tag_2:\n      revert(0x00, 0x00)\n        /* \"contracts/3_Ballot.sol\":213:305  function setMessage(string calldata newMessage) public {... */\n    tag_3:\n      tag_6\n      0x04\n      dup1\n      calldatasize\n      sub\n      dup2\n      add\n      swap1\n      tag_7\n      swap2\n      swap1\n      tag_8\n      jump\t// in\n    tag_7:\n      tag_9\n      jump\t// in\n    tag_6:\n      stop\n        /* \"contracts/3_Ballot.sol\":311:400  function getMessage() public view returns (string memory) {... */\n    tag_4:\n      tag_10\n      tag_11\n      jump\t// in\n    tag_10:\n      mload(0x40)\n      tag_12\n      swap2\n      swap1\n      tag_13\n      jump\t// in\n    tag_12:\n      mload(0x40)\n      dup1\n      swap2\n      sub\n      swap1\n      return\n        /* \"contracts/3_Ballot.sol\":84:115  string public message = \"aaaa1\" */\n    tag_5:\n      tag_14\n      tag_15\n      jump\t// in\n    tag_14:\n      mload(0x40)\n      tag_16\n      swap2\n      swap1\n      tag_13\n      jump\t// in\n    tag_16:\n      mload(0x40)\n      dup1\n      swap2\n      sub\n      swap1\n      return\n        /* \"contracts/3_Ballot.sol\":213:305  function setMessage(string calldata newMessage) public {... */\n    tag_9:\n        /* \"contracts/3_Ballot.sol\":288:298  newMessage */\n      dup2\n      dup2\n        /* \"contracts/3_Ballot.sol\":278:285  message */\n      0x00\n        /* \"contracts/3_Ballot.sol\":278:298  message = newMessage */\n      swap2\n      dup3\n      tag_18\n      swap3\n      swap2\n      swap1\n      tag_19\n      jump\t// in\n    tag_18:\n      pop\n        /* \"contracts/3_Ballot.sol\":213:305  function setMessage(string calldata newMessage) public {... */\n      pop\n      pop\n      jump\t// out\n        /* \"contracts/3_Ballot.sol\":311:400  function getMessage() public view returns (string memory) {... */\n    tag_11:\n        /* \"contracts/3_Ballot.sol\":354:367  string memory */\n      0x60\n        /* \"contracts/3_Ballot.sol\":386:393  message */\n      0x00\n        /* \"contracts/3_Ballot.sol\":379:393  return message */\n      dup1\n      sload\n      tag_21\n      swap1\n      tag_22\n      jump\t// in\n    tag_21:\n      dup1\n      0x1f\n      add\n      0x20\n      dup1\n      swap2\n      div\n      mul\n      0x20\n      add\n      mload(0x40)\n      swap1\n      dup2\n      add\n      0x40\n      mstore\n      dup1\n      swap3\n      swap2\n      swap1\n      dup2\n      dup2\n      mstore\n      0x20\n      add\n      dup3\n      dup1\n      sload\n      tag_23\n      swap1\n      tag_22\n      jump\t// in\n    tag_23:\n      dup1\n      iszero\n      tag_24\n      jumpi\n      dup1\n      0x1f\n      lt\n      tag_25\n      jumpi\n      0x0100\n      dup1\n      dup4\n      sload\n      div\n      mul\n      dup4\n      mstore\n      swap2\n      0x20\n      add\n      swap2\n      jump(tag_24)\n    tag_25:\n      dup3\n      add\n      swap2\n      swap1\n      0x00\n      mstore\n      keccak256(0x00, 0x20)\n      swap1\n    tag_26:\n      dup2\n      sload\n      dup2\n      mstore\n      swap1\n      0x01\n      add\n      swap1\n      0x20\n      add\n      dup1\n      dup4\n      gt\n      tag_26\n      jumpi\n      dup3\n      swap1\n      sub\n      0x1f\n      and\n      dup3\n      add\n      swap2\n    tag_24:\n      pop\n      pop\n      pop\n      pop\n      pop\n      swap1\n      pop\n        /* \"contracts/3_Ballot.sol\":311:400  function getMessage() public view returns (string memory) {... */\n      swap1\n      jump\t// out\n        /* \"contracts/3_Ballot.sol\":84:115  string public message = \"aaaa1\" */\n    tag_15:\n      0x00\n      dup1\n      sload\n      tag_27\n      swap1\n      tag_22\n      jump\t// in\n    tag_27:\n      dup1\n      0x1f\n      add\n      0x20\n      dup1\n      swap2\n      div\n      mul\n      0x20\n      add\n      mload(0x40)\n      swap1\n      dup2\n      add\n      0x40\n      mstore\n      dup1\n      swap3\n      swap2\n      swap1\n      dup2\n      dup2\n      mstore\n      0x20\n      add\n      dup3\n      dup1\n      sload\n      tag_28\n      swap1\n      tag_22\n      jump\t// in\n    tag_28:\n      dup1\n      iszero\n      tag_29\n      jumpi\n      dup1\n      0x1f\n      lt\n      tag_30\n      jumpi\n      0x0100\n      dup1\n      dup4\n      sload\n      div\n      mul\n      dup4\n      mstore\n      swap2\n      0x20\n      add\n      swap2\n      jump(tag_29)\n    tag_30:\n      dup3\n      add\n      swap2\n      swap1\n      0x00\n      mstore\n      keccak256(0x00, 0x20)\n      swap1\n    tag_31:\n      dup2\n      sload\n      dup2\n      mstore\n      swap1\n      0x01\n      add\n      swap1\n      0x20\n      add\n      dup1\n      dup4\n      gt\n      tag_31\n      jumpi\n      dup3\n      swap1\n      sub\n      0x1f\n      and\n      dup3\n      add\n      swap2\n    tag_29:\n      pop\n      pop\n      pop\n      pop\n      pop\n      dup2\n      jump\t// out\n        /* \"#utility.yul\":88:205   */\n    tag_33:\n        /* \"#utility.yul\":197:198   */\n      0x00\n        /* \"#utility.yul\":194:195   */\n      0x00\n        /* \"#utility.yul\":187:199   */\n      revert\n        /* \"#utility.yul\":211:328   */\n    tag_34:\n        /* \"#utility.yul\":320:321   */\n      0x00\n        /* \"#utility.yul\":317:318   */\n      0x00\n        /* \"#utility.yul\":310:322   */\n      revert\n        /* \"#utility.yul\":334:451   */\n    tag_35:\n        /* \"#utility.yul\":443:444   */\n      0x00\n        /* \"#utility.yul\":440:441   */\n      0x00\n        /* \"#utility.yul\":433:445   */\n      revert\n        /* \"#utility.yul\":457:574   */\n    tag_36:\n        /* \"#utility.yul\":566:567   */\n      0x00\n        /* \"#utility.yul\":563:564   */\n      0x00\n        /* \"#utility.yul\":556:568   */\n      revert\n        /* \"#utility.yul\":580:697   */\n    tag_37:\n        /* \"#utility.yul\":689:690   */\n      0x00\n        /* \"#utility.yul\":686:687   */\n      0x00\n        /* \"#utility.yul\":679:691   */\n      revert\n        /* \"#utility.yul\":717:1270   */\n    tag_38:\n        /* \"#utility.yul\":775:783   */\n      0x00\n        /* \"#utility.yul\":785:791   */\n      0x00\n        /* \"#utility.yul\":835:838   */\n      dup4\n        /* \"#utility.yul\":828:832   */\n      0x1f\n        /* \"#utility.yul\":820:826   */\n      dup5\n        /* \"#utility.yul\":816:833   */\n      add\n        /* \"#utility.yul\":812:839   */\n      slt\n        /* \"#utility.yul\":802:924   */\n      tag_71\n      jumpi\n        /* \"#utility.yul\":843:922   */\n      tag_72\n      tag_35\n      jump\t// in\n    tag_72:\n        /* \"#utility.yul\":802:924   */\n    tag_71:\n        /* \"#utility.yul\":956:962   */\n      dup3\n        /* \"#utility.yul\":943:963   */\n      calldataload\n        /* \"#utility.yul\":933:963   */\n      swap1\n      pop\n        /* \"#utility.yul\":986:1004   */\n      0xffffffffffffffff\n        /* \"#utility.yul\":978:984   */\n      dup2\n        /* \"#utility.yul\":975:1005   */\n      gt\n        /* \"#utility.yul\":972:1089   */\n      iszero\n      tag_73\n      jumpi\n        /* \"#utility.yul\":1008:1087   */\n      tag_74\n      tag_36\n      jump\t// in\n    tag_74:\n        /* \"#utility.yul\":972:1089   */\n    tag_73:\n        /* \"#utility.yul\":1122:1126   */\n      0x20\n        /* \"#utility.yul\":1114:1120   */\n      dup4\n        /* \"#utility.yul\":1110:1127   */\n      add\n        /* \"#utility.yul\":1098:1127   */\n      swap2\n      pop\n        /* \"#utility.yul\":1176:1179   */\n      dup4\n        /* \"#utility.yul\":1168:1172   */\n      0x01\n        /* \"#utility.yul\":1160:1166   */\n      dup3\n        /* \"#utility.yul\":1156:1173   */\n      mul\n        /* \"#utility.yul\":1146:1154   */\n      dup4\n        /* \"#utility.yul\":1142:1174   */\n      add\n        /* \"#utility.yul\":1139:1180   */\n      gt\n        /* \"#utility.yul\":1136:1264   */\n      iszero\n      tag_75\n      jumpi\n        /* \"#utility.yul\":1183:1262   */\n      tag_76\n      tag_37\n      jump\t// in\n    tag_76:\n        /* \"#utility.yul\":1136:1264   */\n    tag_75:\n        /* \"#utility.yul\":717:1270   */\n      swap3\n      pop\n      swap3\n      swap1\n      pop\n      jump\t// out\n        /* \"#utility.yul\":1276:1805   */\n    tag_8:\n        /* \"#utility.yul\":1347:1353   */\n      0x00\n        /* \"#utility.yul\":1355:1361   */\n      0x00\n        /* \"#utility.yul\":1404:1406   */\n      0x20\n        /* \"#utility.yul\":1392:1401   */\n      dup4\n        /* \"#utility.yul\":1383:1390   */\n      dup6\n        /* \"#utility.yul\":1379:1402   */\n      sub\n        /* \"#utility.yul\":1375:1407   */\n      slt\n        /* \"#utility.yul\":1372:1491   */\n      iszero\n      tag_78\n      jumpi\n        /* \"#utility.yul\":1410:1489   */\n      tag_79\n      tag_33\n      jump\t// in\n    tag_79:\n        /* \"#utility.yul\":1372:1491   */\n    tag_78:\n        /* \"#utility.yul\":1558:1559   */\n      0x00\n        /* \"#utility.yul\":1547:1556   */\n      dup4\n        /* \"#utility.yul\":1543:1560   */\n      add\n        /* \"#utility.yul\":1530:1561   */\n      calldataload\n        /* \"#utility.yul\":1588:1606   */\n      0xffffffffffffffff\n        /* \"#utility.yul\":1580:1586   */\n      dup2\n        /* \"#utility.yul\":1577:1607   */\n      gt\n        /* \"#utility.yul\":1574:1691   */\n      iszero\n      tag_80\n      jumpi\n        /* \"#utility.yul\":1610:1689   */\n      tag_81\n      tag_34\n      jump\t// in\n    tag_81:\n        /* \"#utility.yul\":1574:1691   */\n    tag_80:\n        /* \"#utility.yul\":1723:1788   */\n      tag_82\n        /* \"#utility.yul\":1780:1787   */\n      dup6\n        /* \"#utility.yul\":1771:1777   */\n      dup3\n        /* \"#utility.yul\":1760:1769   */\n      dup7\n        /* \"#utility.yul\":1756:1778   */\n      add\n        /* \"#utility.yul\":1723:1788   */\n      tag_38\n      jump\t// in\n    tag_82:\n        /* \"#utility.yul\":1705:1788   */\n      swap3\n      pop\n      swap3\n      pop\n        /* \"#utility.yul\":1501:1798   */\n      pop\n        /* \"#utility.yul\":1276:1805   */\n      swap3\n      pop\n      swap3\n      swap1\n      pop\n      jump\t// out\n        /* \"#utility.yul\":1811:1910   */\n    tag_39:\n        /* \"#utility.yul\":1863:1869   */\n      0x00\n        /* \"#utility.yul\":1897:1902   */\n      dup2\n        /* \"#utility.yul\":1891:1903   */\n      mload\n        /* \"#utility.yul\":1881:1903   */\n      swap1\n      pop\n        /* \"#utility.yul\":1811:1910   */\n      swap2\n      swap1\n      pop\n      jump\t// out\n        /* \"#utility.yul\":1916:2085   */\n    tag_40:\n        /* \"#utility.yul\":2000:2011   */\n      0x00\n        /* \"#utility.yul\":2034:2040   */\n      dup3\n        /* \"#utility.yul\":2029:2032   */\n      dup3\n        /* \"#utility.yul\":2022:2041   */\n      mstore\n        /* \"#utility.yul\":2074:2078   */\n      0x20\n        /* \"#utility.yul\":2069:2072   */\n      dup3\n        /* \"#utility.yul\":2065:2079   */\n      add\n        /* \"#utility.yul\":2050:2079   */\n      swap1\n      pop\n        /* \"#utility.yul\":1916:2085   */\n      swap3\n      swap2\n      pop\n      pop\n      jump\t// out\n        /* \"#utility.yul\":2091:2230   */\n    tag_41:\n        /* \"#utility.yul\":2180:2186   */\n      dup3\n        /* \"#utility.yul\":2175:2178   */\n      dup2\n        /* \"#utility.yul\":2170:2173   */\n      dup4\n        /* \"#utility.yul\":2164:2187   */\n      mcopy\n        /* \"#utility.yul\":2221:2222   */\n      0x00\n        /* \"#utility.yul\":2212:2218   */\n      dup4\n        /* \"#utility.yul\":2207:2210   */\n      dup4\n        /* \"#utility.yul\":2203:2219   */\n      add\n        /* \"#utility.yul\":2196:2223   */\n      mstore\n        /* \"#utility.yul\":2091:2230   */\n      pop\n      pop\n      pop\n      jump\t// out\n        /* \"#utility.yul\":2236:2338   */\n    tag_42:\n        /* \"#utility.yul\":2277:2283   */\n      0x00\n        /* \"#utility.yul\":2328:2330   */\n      0x1f\n        /* \"#utility.yul\":2324:2331   */\n      not\n        /* \"#utility.yul\":2319:2321   */\n      0x1f\n        /* \"#utility.yul\":2312:2317   */\n      dup4\n        /* \"#utility.yul\":2308:2322   */\n      add\n        /* \"#utility.yul\":2304:2332   */\n      and\n        /* \"#utility.yul\":2294:2332   */\n      swap1\n      pop\n        /* \"#utility.yul\":2236:2338   */\n      swap2\n      swap1\n      pop\n      jump\t// out\n        /* \"#utility.yul\":2344:2721   */\n    tag_43:\n        /* \"#utility.yul\":2432:2435   */\n      0x00\n        /* \"#utility.yul\":2460:2499   */\n      tag_88\n        /* \"#utility.yul\":2493:2498   */\n      dup3\n        /* \"#utility.yul\":2460:2499   */\n      tag_39\n      jump\t// in\n    tag_88:\n        /* \"#utility.yul\":2515:2586   */\n      tag_89\n        /* \"#utility.yul\":2579:2585   */\n      dup2\n        /* \"#utility.yul\":2574:2577   */\n      dup6\n        /* \"#utility.yul\":2515:2586   */\n      tag_40\n      jump\t// in\n    tag_89:\n        /* \"#utility.yul\":2508:2586   */\n      swap4\n      pop\n        /* \"#utility.yul\":2595:2660   */\n      tag_90\n        /* \"#utility.yul\":2653:2659   */\n      dup2\n        /* \"#utility.yul\":2648:2651   */\n      dup6\n        /* \"#utility.yul\":2641:2645   */\n      0x20\n        /* \"#utility.yul\":2634:2639   */\n      dup7\n        /* \"#utility.yul\":2630:2646   */\n      add\n        /* \"#utility.yul\":2595:2660   */\n      tag_41\n      jump\t// in\n    tag_90:\n        /* \"#utility.yul\":2685:2714   */\n      tag_91\n        /* \"#utility.yul\":2707:2713   */\n      dup2\n        /* \"#utility.yul\":2685:2714   */\n      tag_42\n      jump\t// in\n    tag_91:\n        /* \"#utility.yul\":2680:2683   */\n      dup5\n        /* \"#utility.yul\":2676:2715   */\n      add\n        /* \"#utility.yul\":2669:2715   */\n      swap2\n      pop\n        /* \"#utility.yul\":2436:2721   */\n      pop\n        /* \"#utility.yul\":2344:2721   */\n      swap3\n      swap2\n      pop\n      pop\n      jump\t// out\n        /* \"#utility.yul\":2727:3040   */\n    tag_13:\n        /* \"#utility.yul\":2840:2844   */\n      0x00\n        /* \"#utility.yul\":2878:2880   */\n      0x20\n        /* \"#utility.yul\":2867:2876   */\n      dup3\n        /* \"#utility.yul\":2863:2881   */\n      add\n        /* \"#utility.yul\":2855:2881   */\n      swap1\n      pop\n        /* \"#utility.yul\":2927:2936   */\n      dup2\n        /* \"#utility.yul\":2921:2925   */\n      dup2\n        /* \"#utility.yul\":2917:2937   */\n      sub\n        /* \"#utility.yul\":2913:2914   */\n      0x00\n        /* \"#utility.yul\":2902:2911   */\n      dup4\n        /* \"#utility.yul\":2898:2915   */\n      add\n        /* \"#utility.yul\":2891:2938   */\n      mstore\n        /* \"#utility.yul\":2955:3033   */\n      tag_93\n        /* \"#utility.yul\":3028:3032   */\n      dup2\n        /* \"#utility.yul\":3019:3025   */\n      dup5\n        /* \"#utility.yul\":2955:3033   */\n      tag_43\n      jump\t// in\n    tag_93:\n        /* \"#utility.yul\":2947:3033   */\n      swap1\n      pop\n        /* \"#utility.yul\":2727:3040   */\n      swap3\n      swap2\n      pop\n      pop\n      jump\t// out\n        /* \"#utility.yul\":3046:3143   */\n    tag_44:\n        /* \"#utility.yul\":3105:3111   */\n      0x00\n        /* \"#utility.yul\":3133:3136   */\n      dup3\n        /* \"#utility.yul\":3123:3136   */\n      swap1\n      pop\n        /* \"#utility.yul\":3046:3143   */\n      swap3\n      swap2\n      pop\n      pop\n      jump\t// out\n        /* \"#utility.yul\":3149:3329   */\n    tag_45:\n        /* \"#utility.yul\":3197:3274   */\n      0x4e487b7100000000000000000000000000000000000000000000000000000000\n        /* \"#utility.yul\":3194:3195   */\n      0x00\n        /* \"#utility.yul\":3187:3275   */\n      mstore\n        /* \"#utility.yul\":3294:3298   */\n      0x41\n        /* \"#utility.yul\":3291:3292   */\n      0x04\n        /* \"#utility.yul\":3284:3299   */\n      mstore\n        /* \"#utility.yul\":3318:3322   */\n      0x24\n        /* \"#utility.yul\":3315:3316   */\n      0x00\n        /* \"#utility.yul\":3308:3323   */\n      revert\n        /* \"#utility.yul\":3335:3515   */\n    tag_46:\n        /* \"#utility.yul\":3383:3460   */\n      0x4e487b7100000000000000000000000000000000000000000000000000000000\n        /* \"#utility.yul\":3380:3381   */\n      0x00\n        /* \"#utility.yul\":3373:3461   */\n      mstore\n        /* \"#utility.yul\":3480:3484   */\n      0x22\n        /* \"#utility.yul\":3477:3478   */\n      0x04\n        /* \"#utility.yul\":3470:3485   */\n      mstore\n        /* \"#utility.yul\":3504:3508   */\n      0x24\n        /* \"#utility.yul\":3501:3502   */\n      0x00\n        /* \"#utility.yul\":3494:3509   */\n      revert\n        /* \"#utility.yul\":3521:3841   */\n    tag_22:\n        /* \"#utility.yul\":3565:3571   */\n      0x00\n        /* \"#utility.yul\":3602:3603   */\n      0x02\n        /* \"#utility.yul\":3596:3600   */\n      dup3\n        /* \"#utility.yul\":3592:3604   */\n      div\n        /* \"#utility.yul\":3582:3604   */\n      swap1\n      pop\n        /* \"#utility.yul\":3649:3650   */\n      0x01\n        /* \"#utility.yul\":3643:3647   */\n      dup3\n        /* \"#utility.yul\":3639:3651   */\n      and\n        /* \"#utility.yul\":3670:3688   */\n      dup1\n        /* \"#utility.yul\":3660:3741   */\n      tag_98\n      jumpi\n        /* \"#utility.yul\":3726:3730   */\n      0x7f\n        /* \"#utility.yul\":3718:3724   */\n      dup3\n        /* \"#utility.yul\":3714:3731   */\n      and\n        /* \"#utility.yul\":3704:3731   */\n      swap2\n      pop\n        /* \"#utility.yul\":3660:3741   */\n    tag_98:\n        /* \"#utility.yul\":3788:3790   */\n      0x20\n        /* \"#utility.yul\":3780:3786   */\n      dup3\n        /* \"#utility.yul\":3777:3791   */\n      lt\n        /* \"#utility.yul\":3757:3775   */\n      dup2\n        /* \"#utility.yul\":3754:3792   */\n      sub\n        /* \"#utility.yul\":3751:3835   */\n      tag_99\n      jumpi\n        /* \"#utility.yul\":3807:3825   */\n      tag_100\n      tag_46\n      jump\t// in\n    tag_100:\n        /* \"#utility.yul\":3751:3835   */\n    tag_99:\n        /* \"#utility.yul\":3572:3841   */\n      pop\n        /* \"#utility.yul\":3521:3841   */\n      swap2\n      swap1\n      pop\n      jump\t// out\n        /* \"#utility.yul\":3847:3988   */\n    tag_47:\n        /* \"#utility.yul\":3896:3900   */\n      0x00\n        /* \"#utility.yul\":3919:3922   */\n      dup2\n        /* \"#utility.yul\":3911:3922   */\n      swap1\n      pop\n        /* \"#utility.yul\":3942:3945   */\n      dup2\n        /* \"#utility.yul\":3939:3940   */\n      0x00\n        /* \"#utility.yul\":3932:3946   */\n      mstore\n        /* \"#utility.yul\":3976:3980   */\n      0x20\n        /* \"#utility.yul\":3973:3974   */\n      0x00\n        /* \"#utility.yul\":3963:3981   */\n      keccak256\n        /* \"#utility.yul\":3955:3981   */\n      swap1\n      pop\n        /* \"#utility.yul\":3847:3988   */\n      swap2\n      swap1\n      pop\n      jump\t// out\n        /* \"#utility.yul\":3994:4087   */\n    tag_48:\n        /* \"#utility.yul\":4031:4037   */\n      0x00\n        /* \"#utility.yul\":4078:4080   */\n      0x20\n        /* \"#utility.yul\":4073:4075   */\n      0x1f\n        /* \"#utility.yul\":4066:4071   */\n      dup4\n        /* \"#utility.yul\":4062:4076   */\n      add\n        /* \"#utility.yul\":4058:4081   */\n      div\n        /* \"#utility.yul\":4048:4081   */\n      swap1\n      pop\n        /* \"#utility.yul\":3994:4087   */\n      swap2\n      swap1\n      pop\n      jump\t// out\n        /* \"#utility.yul\":4093:4200   */\n    tag_49:\n        /* \"#utility.yul\":4137:4145   */\n      0x00\n        /* \"#utility.yul\":4187:4192   */\n      dup3\n        /* \"#utility.yul\":4181:4185   */\n      dup3\n        /* \"#utility.yul\":4177:4193   */\n      shl\n        /* \"#utility.yul\":4156:4193   */\n      swap1\n      pop\n        /* \"#utility.yul\":4093:4200   */\n      swap3\n      swap2\n      pop\n      pop\n      jump\t// out\n        /* \"#utility.yul\":4206:4599   */\n    tag_50:\n        /* \"#utility.yul\":4275:4281   */\n      0x00\n        /* \"#utility.yul\":4325:4326   */\n      0x08\n        /* \"#utility.yul\":4313:4323   */\n      dup4\n        /* \"#utility.yul\":4309:4327   */\n      mul\n        /* \"#utility.yul\":4348:4445   */\n      tag_105\n        /* \"#utility.yul\":4378:4444   */\n      0xffffffffffffffffffffffffffffffffffffffffffffffffffffffffffffffff\n        /* \"#utility.yul\":4367:4376   */\n      dup3\n        /* \"#utility.yul\":4348:4445   */\n      tag_49\n      jump\t// in\n    tag_105:\n        /* \"#utility.yul\":4466:4505   */\n      tag_106\n        /* \"#utility.yul\":4496:4504   */\n      dup7\n        /* \"#utility.yul\":4485:4494   */\n      dup4\n        /* \"#utility.yul\":4466:4505   */\n      tag_49\n      jump\t// in\n    tag_106:\n        /* \"#utility.yul\":4454:4505   */\n      swap6\n      pop\n        /* \"#utility.yul\":4538:4542   */\n      dup1\n        /* \"#utility.yul\":4534:4543   */\n      not\n        /* \"#utility.yul\":4527:4532   */\n      dup5\n        /* \"#utility.yul\":4523:4544   */\n      and\n        /* \"#utility.yul\":4514:4544   */\n      swap4\n      pop\n        /* \"#utility.yul\":4587:4591   */\n      dup1\n        /* \"#utility.yul\":4577:4585   */\n      dup7\n        /* \"#utility.yul\":4573:4592   */\n      and\n        /* \"#utility.yul\":4566:4571   */\n      dup5\n        /* \"#utility.yul\":4563:4593   */\n      or\n        /* \"#utility.yul\":4553:4593   */\n      swap3\n      pop\n        /* \"#utility.yul\":4282:4599   */\n      pop\n      pop\n        /* \"#utility.yul\":4206:4599   */\n      swap4\n      swap3\n      pop\n      pop\n      pop\n      jump\t// out\n        /* \"#utility.yul\":4605:4682   */\n    tag_51:\n        /* \"#utility.yul\":4642:4649   */\n      0x00\n        /* \"#utility.yul\":4671:4676   */\n      dup2\n        /* \"#utility.yul\":4660:4676   */\n      swap1\n      pop\n        /* \"#utility.yul\":4605:4682   */\n      swap2\n      swap1\n      pop\n      jump\t// out\n        /* \"#utility.yul\":4688:4748   */\n    tag_52:\n        /* \"#utility.yul\":4716:4719   */\n      0x00\n        /* \"#utility.yul\":4737:4742   */\n      dup2\n        /* \"#utility.yul\":4730:4742   */\n      swap1\n      pop\n        /* \"#utility.yul\":4688:4748   */\n      swap2\n      swap1\n      pop\n      jump\t// out\n        /* \"#utility.yul\":4754:4896   */\n    tag_53:\n        /* \"#utility.yul\":4804:4813   */\n      0x00\n        /* \"#utility.yul\":4837:4890   */\n      tag_110\n        /* \"#utility.yul\":4855:4889   */\n      tag_111\n        /* \"#utility.yul\":4864:4888   */\n      tag_112\n        /* \"#utility.yul\":4882:4887   */\n      dup5\n        /* \"#utility.yul\":4864:4888   */\n      tag_51\n      jump\t// in\n    tag_112:\n        /* \"#utility.yul\":4855:4889   */\n      tag_52\n      jump\t// in\n    tag_111:\n        /* \"#utility.yul\":4837:4890   */\n      tag_51\n      jump\t// in\n    tag_110:\n        /* \"#utility.yul\":4824:4890   */\n      swap1\n      pop\n        /* \"#utility.yul\":4754:4896   */\n      swap2\n      swap1\n      pop\n      jump\t// out\n        /* \"#utility.yul\":4902:4977   */\n    tag_54:\n        /* \"#utility.yul\":4945:4948   */\n      0x00\n        /* \"#utility.yul\":4966:4971   */\n      dup2\n        /* \"#utility.yul\":4959:4971   */\n      swap1\n      pop\n        /* \"#utility.yul\":4902:4977   */\n      swap2\n      swap1\n      pop\n      jump\t// out\n        /* \"#utility.yul\":4983:5252   */\n    tag_55:\n        /* \"#utility.yul\":5093:5132   */\n      tag_115\n        /* \"#utility.yul\":5124:5131   */\n      dup4\n        /* \"#utility.yul\":5093:5132   */\n      tag_53\n      jump\t// in\n    tag_115:\n        /* \"#utility.yul\":5154:5245   */\n      tag_116\n        /* \"#utility.yul\":5203:5244   */\n      tag_117\n        /* \"#utility.yul\":5227:5243   */\n      dup3\n        /* \"#utility.yul\":5203:5244   */\n      tag_54\n      jump\t// in\n    tag_117:\n        /* \"#utility.yul\":5195:5201   */\n      dup5\n        /* \"#utility.yul\":5188:5192   */\n      dup5\n        /* \"#utility.yul\":5182:5193   */\n      sload\n        /* \"#utility.yul\":5154:5245   */\n      tag_50\n      jump\t// in\n    tag_116:\n        /* \"#utility.yul\":5148:5152   */\n      dup3\n        /* \"#utility.yul\":5141:5246   */\n      sstore\n        /* \"#utility.yul\":5059:5252   */\n      pop\n        /* \"#utility.yul\":4983:5252   */\n      pop\n      pop\n      pop\n      jump\t// out\n        /* \"#utility.yul\":5258:5331   */\n    tag_56:\n        /* \"#utility.yul\":5303:5306   */\n      0x00\n        /* \"#utility.yul\":5324:5325   */\n      0x00\n        /* \"#utility.yul\":5317:5325   */\n      swap1\n      pop\n        /* \"#utility.yul\":5258:5331   */\n      swap1\n      jump\t// out\n        /* \"#utility.yul\":5337:5526   */\n    tag_57:\n        /* \"#utility.yul\":5414:5446   */\n      tag_120\n      tag_56\n      jump\t// in\n    tag_120:\n        /* \"#utility.yul\":5455:5520   */\n      tag_121\n        /* \"#utility.yul\":5513:5519   */\n      dup2\n        /* \"#utility.yul\":5505:5511   */\n      dup5\n        /* \"#utility.yul\":5499:5503   */\n      dup5\n        /* \"#utility.yul\":5455:5520   */\n      tag_55\n      jump\t// in\n    tag_121:\n        /* \"#utility.yul\":5390:5526   */\n      pop\n        /* \"#utility.yul\":5337:5526   */\n      pop\n      pop\n      jump\t// out\n        /* \"#utility.yul\":5532:5718   */\n    tag_58:\n        /* \"#utility.yul\":5592:5712   */\n    tag_123:\n        /* \"#utility.yul\":5609:5612   */\n      dup2\n        /* \"#utility.yul\":5602:5607   */\n      dup2\n        /* \"#utility.yul\":5599:5613   */\n      lt\n        /* \"#utility.yul\":5592:5712   */\n      iszero\n      tag_125\n      jumpi\n        /* \"#utility.yul\":5663:5702   */\n      tag_126\n        /* \"#utility.yul\":5700:5701   */\n      0x00\n        /* \"#utility.yul\":5693:5698   */\n      dup3\n        /* \"#utility.yul\":5663:5702   */\n      tag_57\n      jump\t// in\n    tag_126:\n        /* \"#utility.yul\":5636:5637   */\n      0x01\n        /* \"#utility.yul\":5629:5634   */\n      dup2\n        /* \"#utility.yul\":5625:5638   */\n      add\n        /* \"#utility.yul\":5616:5638   */\n      swap1\n      pop\n        /* \"#utility.yul\":5592:5712   */\n      jump(tag_123)\n    tag_125:\n        /* \"#utility.yul\":5532:5718   */\n      pop\n      pop\n      jump\t// out\n        /* \"#utility.yul\":5724:6267   */\n    tag_59:\n        /* \"#utility.yul\":5825:5827   */\n      0x1f\n        /* \"#utility.yul\":5820:5823   */\n      dup3\n        /* \"#utility.yul\":5817:5828   */\n      gt\n        /* \"#utility.yul\":5814:6260   */\n      iszero\n      tag_128\n      jumpi\n        /* \"#utility.yul\":5859:5897   */\n      tag_129\n        /* \"#utility.yul\":5891:5896   */\n      dup2\n        /* \"#utility.yul\":5859:5897   */\n      tag_47\n      jump\t// in\n    tag_129:\n        /* \"#utility.yul\":5943:5972   */\n      tag_130\n        /* \"#utility.yul\":5961:5971   */\n      dup5\n        /* \"#utility.yul\":5943:5972   */\n      tag_48\n      jump\t// in\n    tag_130:\n        /* \"#utility.yul\":5933:5941   */\n      dup2\n        /* \"#utility.yul\":5929:5973   */\n      add\n        /* \"#utility.yul\":6126:6128   */\n      0x20\n        /* \"#utility.yul\":6114:6124   */\n      dup6\n        /* \"#utility.yul\":6111:6129   */\n      lt\n        /* \"#utility.yul\":6108:6157   */\n      iszero\n      tag_131\n      jumpi\n        /* \"#utility.yul\":6147:6155   */\n      dup2\n        /* \"#utility.yul\":6132:6155   */\n      swap1\n      pop\n        /* \"#utility.yul\":6108:6157   */\n    tag_131:\n        /* \"#utility.yul\":6170:6250   */\n      tag_132\n        /* \"#utility.yul\":6226:6248   */\n      tag_133\n        /* \"#utility.yul\":6244:6247   */\n      dup6\n        /* \"#utility.yul\":6226:6248   */\n      tag_48\n      jump\t// in\n    tag_133:\n        /* \"#utility.yul\":6216:6224   */\n      dup4\n        /* \"#utility.yul\":6212:6249   */\n      add\n        /* \"#utility.yul\":6199:6210   */\n      dup3\n        /* \"#utility.yul\":6170:6250   */\n      tag_58\n      jump\t// in\n    tag_132:\n        /* \"#utility.yul\":5829:6260   */\n      pop\n      pop\n        /* \"#utility.yul\":5814:6260   */\n    tag_128:\n        /* \"#utility.yul\":5724:6267   */\n      pop\n      pop\n      pop\n      jump\t// out\n        /* \"#utility.yul\":6273:6390   */\n    tag_60:\n        /* \"#utility.yul\":6327:6335   */\n      0x00\n        /* \"#utility.yul\":6377:6382   */\n      dup3\n        /* \"#utility.yul\":6371:6375   */\n      dup3\n        /* \"#utility.yul\":6367:6383   */\n      shr\n        /* \"#utility.yul\":6346:6383   */\n      swap1\n      pop\n        /* \"#utility.yul\":6273:6390   */\n      swap3\n      swap2\n      pop\n      pop\n      jump\t// out\n        /* \"#utility.yul\":6396:6565   */\n    tag_61:\n        /* \"#utility.yul\":6440:6446   */\n      0x00\n        /* \"#utility.yul\":6473:6524   */\n      tag_136\n        /* \"#utility.yul\":6521:6522   */\n      0x00\n        /* \"#utility.yul\":6517:6523   */\n      not\n        /* \"#utility.yul\":6509:6514   */\n      dup5\n        /* \"#utility.yul\":6506:6507   */\n      0x08\n        /* \"#utility.yul\":6502:6515   */\n      mul\n        /* \"#utility.yul\":6473:6524   */\n      tag_60\n      jump\t// in\n    tag_136:\n        /* \"#utility.yul\":6469:6525   */\n      not\n        /* \"#utility.yul\":6554:6558   */\n      dup1\n        /* \"#utility.yul\":6548:6552   */\n      dup4\n        /* \"#utility.yul\":6544:6559   */\n      and\n        /* \"#utility.yul\":6534:6559   */\n      swap2\n      pop\n        /* \"#utility.yul\":6447:6565   */\n      pop\n        /* \"#utility.yul\":6396:6565   */\n      swap3\n      swap2\n      pop\n      pop\n      jump\t// out\n        /* \"#utility.yul\":6570:6865   */\n    tag_62:\n        /* \"#utility.yul\":6646:6650   */\n      0x00\n        /* \"#utility.yul\":6792:6821   */\n      tag_138\n        /* \"#utility.yul\":6817:6820   */\n      dup4\n        /* \"#utility.yul\":6811:6815   */\n      dup4\n        /* \"#utility.yul\":6792:6821   */\n      tag_61\n      jump\t// in\n    tag_138:\n        /* \"#utility.yul\":6784:6821   */\n      swap2\n      pop\n        /* \"#utility.yul\":6854:6857   */\n      dup3\n        /* \"#utility.yul\":6851:6852   */\n      0x02\n        /* \"#utility.yul\":6847:6858   */\n      mul\n        /* \"#utility.yul\":6841:6845   */\n      dup3\n        /* \"#utility.yul\":6838:6859   */\n      or\n        /* \"#utility.yul\":6830:6859   */\n      swap1\n      pop\n        /* \"#utility.yul\":6570:6865   */\n      swap3\n      swap2\n      pop\n      pop\n      jump\t// out\n        /* \"#utility.yul\":6870:8273   */\n    tag_19:\n        /* \"#utility.yul\":6994:7038   */\n      tag_140\n        /* \"#utility.yul\":7034:7037   */\n      dup4\n        /* \"#utility.yul\":7029:7032   */\n      dup4\n        /* \"#utility.yul\":6994:7038   */\n      tag_44\n      jump\t// in\n    tag_140:\n        /* \"#utility.yul\":7103:7121   */\n      0xffffffffffffffff\n        /* \"#utility.yul\":7095:7101   */\n      dup2\n        /* \"#utility.yul\":7092:7122   */\n      gt\n        /* \"#utility.yul\":7089:7145   */\n      iszero\n      tag_141\n      jumpi\n        /* \"#utility.yul\":7125:7143   */\n      tag_142\n      tag_45\n      jump\t// in\n    tag_142:\n        /* \"#utility.yul\":7089:7145   */\n    tag_141:\n        /* \"#utility.yul\":7169:7207   */\n      tag_143\n        /* \"#utility.yul\":7201:7205   */\n      dup3\n        /* \"#utility.yul\":7195:7206   */\n      sload\n        /* \"#utility.yul\":7169:7207   */\n      tag_22\n      jump\t// in\n    tag_143:\n        /* \"#utility.yul\":7254:7321   */\n      tag_144\n        /* \"#utility.yul\":7314:7320   */\n      dup3\n        /* \"#utility.yul\":7306:7312   */\n      dup3\n        /* \"#utility.yul\":7300:7304   */\n      dup6\n        /* \"#utility.yul\":7254:7321   */\n      tag_59\n      jump\t// in\n    tag_144:\n        /* \"#utility.yul\":7348:7349   */\n      0x00\n        /* \"#utility.yul\":7377:7379   */\n      0x1f\n        /* \"#utility.yul\":7369:7375   */\n      dup4\n        /* \"#utility.yul\":7366:7380   */\n      gt\n        /* \"#utility.yul\":7394:7395   */\n      0x01\n        /* \"#utility.yul\":7389:8021   */\n      dup2\n      eq\n      tag_146\n      jumpi\n        /* \"#utility.yul\":8065:8066   */\n      0x00\n        /* \"#utility.yul\":8082:8088   */\n      dup5\n        /* \"#utility.yul\":8079:8163   */\n      iszero\n      tag_147\n      jumpi\n        /* \"#utility.yul\":8138:8147   */\n      dup3\n        /* \"#utility.yul\":8133:8136   */\n      dup8\n        /* \"#utility.yul\":8129:8148   */\n      add\n        /* \"#utility.yul\":8116:8149   */\n      calldataload\n        /* \"#utility.yul\":8107:8149   */\n      swap1\n      pop\n        /* \"#utility.yul\":8079:8163   */\n    tag_147:\n        /* \"#utility.yul\":8189:8256   */\n      tag_148\n        /* \"#utility.yul\":8249:8255   */\n      dup6\n        /* \"#utility.yul\":8242:8247   */\n      dup3\n        /* \"#utility.yul\":8189:8256   */\n      tag_62\n      jump\t// in\n    tag_148:\n        /* \"#utility.yul\":8183:8187   */\n      dup7\n        /* \"#utility.yul\":8176:8257   */\n      sstore\n        /* \"#utility.yul\":8038:8267   */\n      pop\n        /* \"#utility.yul\":7359:8267   */\n      jump(tag_145)\n        /* \"#utility.yul\":7389:8021   */\n    tag_146:\n        /* \"#utility.yul\":7441:7445   */\n      0x1f\n        /* \"#utility.yul\":7437:7446   */\n      not\n        /* \"#utility.yul\":7429:7435   */\n      dup5\n        /* \"#utility.yul\":7425:7447   */\n      and\n        /* \"#utility.yul\":7475:7512   */\n      tag_149\n        /* \"#utility.yul\":7507:7511   */\n      dup7\n        /* \"#utility.yul\":7475:7512   */\n      tag_47\n      jump\t// in\n    tag_149:\n        /* \"#utility.yul\":7534:7535   */\n      0x00\n        /* \"#utility.yul\":7548:7763   */\n    tag_150:\n        /* \"#utility.yul\":7562:7569   */\n      dup3\n        /* \"#utility.yul\":7559:7560   */\n      dup2\n        /* \"#utility.yul\":7556:7570   */\n      lt\n        /* \"#utility.yul\":7548:7763   */\n      iszero\n      tag_152\n      jumpi\n        /* \"#utility.yul\":7648:7657   */\n      dup5\n        /* \"#utility.yul\":7643:7646   */\n      dup10\n        /* \"#utility.yul\":7639:7658   */\n      add\n        /* \"#utility.yul\":7626:7659   */\n      calldataload\n        /* \"#utility.yul\":7618:7624   */\n      dup3\n        /* \"#utility.yul\":7611:7660   */\n      sstore\n        /* \"#utility.yul\":7699:7700   */\n      0x01\n        /* \"#utility.yul\":7691:7697   */\n      dup3\n        /* \"#utility.yul\":7687:7701   */\n      add\n        /* \"#utility.yul\":7677:7701   */\n      swap2\n      pop\n        /* \"#utility.yul\":7746:7748   */\n      0x20\n        /* \"#utility.yul\":7735:7744   */\n      dup6\n        /* \"#utility.yul\":7731:7749   */\n      add\n        /* \"#utility.yul\":7718:7749   */\n      swap5\n      pop\n        /* \"#utility.yul\":7585:7589   */\n      0x20\n        /* \"#utility.yul\":7582:7583   */\n      dup2\n        /* \"#utility.yul\":7578:7590   */\n      add\n        /* \"#utility.yul\":7573:7590   */\n      swap1\n      pop\n        /* \"#utility.yul\":7548:7763   */\n      jump(tag_150)\n    tag_152:\n        /* \"#utility.yul\":7791:7797   */\n      dup7\n        /* \"#utility.yul\":7782:7789   */\n      dup4\n        /* \"#utility.yul\":7779:7798   */\n      lt\n        /* \"#utility.yul\":7776:7962   */\n      iszero\n      tag_153\n      jumpi\n        /* \"#utility.yul\":7856:7865   */\n      dup5\n        /* \"#utility.yul\":7851:7854   */\n      dup10\n        /* \"#utility.yul\":7847:7866   */\n      add\n        /* \"#utility.yul\":7834:7867   */\n      calldataload\n        /* \"#utility.yul\":7899:7947   */\n      tag_154\n        /* \"#utility.yul\":7941:7945   */\n      0x1f\n        /* \"#utility.yul\":7933:7939   */\n      dup10\n        /* \"#utility.yul\":7929:7946   */\n      and\n        /* \"#utility.yul\":7918:7927   */\n      dup3\n        /* \"#utility.yul\":7899:7947   */\n      tag_61\n      jump\t// in\n    tag_154:\n        /* \"#utility.yul\":7891:7897   */\n      dup4\n        /* \"#utility.yul\":7884:7948   */\n      sstore\n        /* \"#utility.yul\":7799:7962   */\n      pop\n        /* \"#utility.yul\":7776:7962   */\n    tag_153:\n        /* \"#utility.yul\":8008:8009   */\n      0x01\n        /* \"#utility.yul\":8004:8005   */\n      0x02\n        /* \"#utility.yul\":7996:8002   */\n      dup9\n        /* \"#utility.yul\":7992:8006   */\n      mul\n        /* \"#utility.yul\":7988:8010   */\n      add\n        /* \"#utility.yul\":7982:7986   */\n      dup9\n        /* \"#utility.yul\":7975:8011   */\n      sstore\n        /* \"#utility.yul\":7396:8021   */\n      pop\n      pop\n      pop\n        /* \"#utility.yul\":7359:8267   */\n    tag_145:\n      pop\n        /* \"#utility.yul\":6969:8273   */\n      pop\n      pop\n      pop\n        /* \"#utility.yul\":6870:8273   */\n      pop\n      pop\n      pop\n      jump\t// out\n\n    auxdata: 0xa26469706673582212207ce76dafe796507910239718af730d88b3edfeac5a03293830c2367637238c7564736f6c634300081c0033\n}\n",
				"bytecode": {
					"linkReferences": {},
					"object": "60806040526040518060400160405280600581526020017f61616161310000000000000000000000000000000000000000000000000000008152505f908161004791906102c7565b50348015610053575f5ffd5b50604051610b58380380610b58833981810160405281019061007591906104b6565b805f908161008391906102c7565b50506104fd565b5f81519050919050565b7f4e487b71000000000000000000000000000000000000000000000000000000005f52604160045260245ffd5b7f4e487b71000000000000000000000000000000000000000000000000000000005f52602260045260245ffd5b5f600282049050600182168061010557607f821691505b602082108103610118576101176100c1565b5b50919050565b5f819050815f5260205f209050919050565b5f6020601f8301049050919050565b5f82821b905092915050565b5f6008830261017a7fffffffffffffffffffffffffffffffffffffffffffffffffffffffffffffffff8261013f565b610184868361013f565b95508019841693508086168417925050509392505050565b5f819050919050565b5f819050919050565b5f6101c86101c36101be8461019c565b6101a5565b61019c565b9050919050565b5f819050919050565b6101e1836101ae565b6101f56101ed826101cf565b84845461014b565b825550505050565b5f5f905090565b61020c6101fd565b6102178184846101d8565b505050565b5b8181101561023a5761022f5f82610204565b60018101905061021d565b5050565b601f82111561027f576102508161011e565b61025984610130565b81016020851015610268578190505b61027c61027485610130565b83018261021c565b50505b505050565b5f82821c905092915050565b5f61029f5f1984600802610284565b1980831691505092915050565b5f6102b78383610290565b9150826002028217905092915050565b6102d08261008a565b67ffffffffffffffff8111156102e9576102e8610094565b5b6102f382546100ee565b6102fe82828561023e565b5f60209050601f83116001811461032f575f841561031d578287015190505b61032785826102ac565b86555061038e565b601f19841661033d8661011e565b5f5b828110156103645784890151825560018201915060208501945060208101905061033f565b86831015610381578489015161037d601f891682610290565b8355505b6001600288020188555050505b505050505050565b5f604051905090565b5f5ffd5b5f5ffd5b5f5ffd5b5f5ffd5b5f601f19601f8301169050919050565b6103c8826103af565b810181811067ffffffffffffffff821117156103e7576103e6610094565b5b80604052505050565b5f6103f9610396565b905061040582826103bf565b919050565b5f67ffffffffffffffff82111561042457610423610094565b5b61042d826103af565b9050602081019050919050565b8281835e5f83830152505050565b5f61045a6104558461040a565b6103f0565b905082815260208101848484011115610476576104756103ab565b5b61048184828561043a565b509392505050565b5f82601f83011261049d5761049c6103a7565b5b81516104ad848260208601610448565b91505092915050565b5f602082840312156104cb576104ca61039f565b5b5f82015167ffffffffffffffff8111156104e8576104e76103a3565b5b6104f484828501610489565b91505092915050565b61064e8061050a5f395ff3fe608060405234801561000f575f5ffd5b506004361061003f575f3560e01c8063368b877214610043578063ce6d41de1461005f578063e21f37ce1461007d575b5f5ffd5b61005d60048036038101906100589190610233565b61009b565b005b6100676100b0565b60405161007491906102ee565b60405180910390f35b61008561013f565b60405161009291906102ee565b60405180910390f35b81815f91826100ab92919061054b565b505050565b60605f80546100be90610372565b80601f01602080910402602001604051908101604052809291908181526020018280546100ea90610372565b80156101355780601f1061010c57610100808354040283529160200191610135565b820191905f5260205f20905b81548152906001019060200180831161011857829003601f168201915b5050505050905090565b5f805461014b90610372565b80601f016020809104026020016040519081016040528092919081815260200182805461017790610372565b80156101c25780601f10610199576101008083540402835291602001916101c2565b820191905f5260205f20905b8154815290600101906020018083116101a557829003601f168201915b505050505081565b5f5ffd5b5f5ffd5b5f5ffd5b5f5ffd5b5f5ffd5b5f5f83601f8401126101f3576101f26101d2565b5b8235905067ffffffffffffffff8111156102105761020f6101d6565b5b60208301915083600182028301111561022c5761022b6101da565b5b9250929050565b5f5f60208385031215610249576102486101ca565b5b5f83013567ffffffffffffffff811115610266576102656101ce565b5b610272858286016101de565b92509250509250929050565b5f81519050919050565b5f82825260208201905092915050565b8281835e5f83830152505050565b5f601f19601f8301169050919050565b5f6102c08261027e565b6102ca8185610288565b93506102da818560208601610298565b6102e3816102a6565b840191505092915050565b5f6020820190508181035f83015261030681846102b6565b905092915050565b5f82905092915050565b7f4e487b71000000000000000000000000000000000000000000000000000000005f52604160045260245ffd5b7f4e487b71000000000000000000000000000000000000000000000000000000005f52602260045260245ffd5b5f600282049050600182168061038957607f821691505b60208210810361039c5761039b610345565b5b50919050565b5f819050815f5260205f209050919050565b5f6020601f8301049050919050565b5f82821b905092915050565b5f600883026103fe7fffffffffffffffffffffffffffffffffffffffffffffffffffffffffffffffff826103c3565b61040886836103c3565b95508019841693508086168417925050509392505050565b5f819050919050565b5f819050919050565b5f61044c61044761044284610420565b610429565b610420565b9050919050565b5f819050919050565b61046583610432565b61047961047182610453565b8484546103cf565b825550505050565b5f5f905090565b610490610481565b61049b81848461045c565b505050565b5b818110156104be576104b35f82610488565b6001810190506104a1565b5050565b601f821115610503576104d4816103a2565b6104dd846103b4565b810160208510156104ec578190505b6105006104f8856103b4565b8301826104a0565b50505b505050565b5f82821c905092915050565b5f6105235f1984600802610508565b1980831691505092915050565b5f61053b8383610514565b9150826002028217905092915050565b610555838361030e565b67ffffffffffffffff81111561056e5761056d610318565b5b6105788254610372565b6105838282856104c2565b5f601f8311600181146105b0575f841561059e578287013590505b6105a88582610530565b86555061060f565b601f1984166105be866103a2565b5f5b828110156105e5578489013582556001820191506020850194506020810190506105c0565b8683101561060257848901356105fe601f891682610514565b8355505b6001600288020188555050505b5050505050505056fea26469706673582212207ce76dafe796507910239718af730d88b3edfeac5a03293830c2367637238c7564736f6c634300081c0033",
					"opcodes": "PUSH1 0x80 PUSH1 0x40 MSTORE PUSH1 0x40 MLOAD DUP1 PUSH1 0x40 ADD PUSH1 0x40 MSTORE DUP1 PUSH1 0x5 DUP2 MSTORE PUSH1 0x20 ADD PUSH32 0x6161616131000000000000000000000000000000000000000000000000000000 DUP2 MSTORE POP PUSH0 SWAP1 DUP2 PUSH2 0x47 SWAP2 SWAP1 PUSH2 0x2C7 JUMP JUMPDEST POP CALLVALUE DUP1 ISZERO PUSH2 0x53 JUMPI PUSH0 PUSH0 REVERT JUMPDEST POP PUSH1 0x40 MLOAD PUSH2 0xB58 CODESIZE SUB DUP1 PUSH2 0xB58 DUP4 CODECOPY DUP2 DUP2 ADD PUSH1 0x40 MSTORE DUP2 ADD SWAP1 PUSH2 0x75 SWAP2 SWAP1 PUSH2 0x4B6 JUMP JUMPDEST DUP1 PUSH0 SWAP1 DUP2 PUSH2 0x83 SWAP2 SWAP1 PUSH2 0x2C7 JUMP JUMPDEST POP POP PUSH2 0x4FD JUMP JUMPDEST PUSH0 DUP2 MLOAD SWAP1 POP SWAP2 SWAP1 POP JUMP JUMPDEST PUSH32 0x4E487B7100000000000000000000000000000000000000000000000000000000 PUSH0 MSTORE PUSH1 0x41 PUSH1 0x4 MSTORE PUSH1 0x24 PUSH0 REVERT JUMPDEST PUSH32 0x4E487B7100000000000000000000000000000000000000000000000000000000 PUSH0 MSTORE PUSH1 0x22 PUSH1 0x4 MSTORE PUSH1 0x24 PUSH0 REVERT JUMPDEST PUSH0 PUSH1 0x2 DUP3 DIV SWAP1 POP PUSH1 0x1 DUP3 AND DUP1 PUSH2 0x105 JUMPI PUSH1 0x7F DUP3 AND SWAP2 POP JUMPDEST PUSH1 0x20 DUP3 LT DUP2 SUB PUSH2 0x118 JUMPI PUSH2 0x117 PUSH2 0xC1 JUMP JUMPDEST JUMPDEST POP SWAP2 SWAP1 POP JUMP JUMPDEST PUSH0 DUP2 SWAP1 POP DUP2 PUSH0 MSTORE PUSH1 0x20 PUSH0 KECCAK256 SWAP1 POP SWAP2 SWAP1 POP JUMP JUMPDEST PUSH0 PUSH1 0x20 PUSH1 0x1F DUP4 ADD DIV SWAP1 POP SWAP2 SWAP1 POP JUMP JUMPDEST PUSH0 DUP3 DUP3 SHL SWAP1 POP SWAP3 SWAP2 POP POP JUMP JUMPDEST PUSH0 PUSH1 0x8 DUP4 MUL PUSH2 0x17A PUSH32 0xFFFFFFFFFFFFFFFFFFFFFFFFFFFFFFFFFFFFFFFFFFFFFFFFFFFFFFFFFFFFFFFF DUP3 PUSH2 0x13F JUMP JUMPDEST PUSH2 0x184 DUP7 DUP4 PUSH2 0x13F JUMP JUMPDEST SWAP6 POP DUP1 NOT DUP5 AND SWAP4 POP DUP1 DUP7 AND DUP5 OR SWAP3 POP POP POP SWAP4 SWAP3 POP POP POP JUMP JUMPDEST PUSH0 DUP2 SWAP1 POP SWAP2 SWAP1 POP JUMP JUMPDEST PUSH0 DUP2 SWAP1 POP SWAP2 SWAP1 POP JUMP JUMPDEST PUSH0 PUSH2 0x1C8 PUSH2 0x1C3 PUSH2 0x1BE DUP5 PUSH2 0x19C JUMP JUMPDEST PUSH2 0x1A5 JUMP JUMPDEST PUSH2 0x19C JUMP JUMPDEST SWAP1 POP SWAP2 SWAP1 POP JUMP JUMPDEST PUSH0 DUP2 SWAP1 POP SWAP2 SWAP1 POP JUMP JUMPDEST PUSH2 0x1E1 DUP4 PUSH2 0x1AE JUMP JUMPDEST PUSH2 0x1F5 PUSH2 0x1ED DUP3 PUSH2 0x1CF JUMP JUMPDEST DUP5 DUP5 SLOAD PUSH2 0x14B JUMP JUMPDEST DUP3 SSTORE POP POP POP POP JUMP JUMPDEST PUSH0 PUSH0 SWAP1 POP SWAP1 JUMP JUMPDEST PUSH2 0x20C PUSH2 0x1FD JUMP JUMPDEST PUSH2 0x217 DUP2 DUP5 DUP5 PUSH2 0x1D8 JUMP JUMPDEST POP POP POP JUMP JUMPDEST JUMPDEST DUP2 DUP2 LT ISZERO PUSH2 0x23A JUMPI PUSH2 0x22F PUSH0 DUP3 PUSH2 0x204 JUMP JUMPDEST PUSH1 0x1 DUP2 ADD SWAP1 POP PUSH2 0x21D JUMP JUMPDEST POP POP JUMP JUMPDEST PUSH1 0x1F DUP3 GT ISZERO PUSH2 0x27F JUMPI PUSH2 0x250 DUP2 PUSH2 0x11E JUMP JUMPDEST PUSH2 0x259 DUP5 PUSH2 0x130 JUMP JUMPDEST DUP2 ADD PUSH1 0x20 DUP6 LT ISZERO PUSH2 0x268 JUMPI DUP2 SWAP1 POP JUMPDEST PUSH2 0x27C PUSH2 0x274 DUP6 PUSH2 0x130 JUMP JUMPDEST DUP4 ADD DUP3 PUSH2 0x21C JUMP JUMPDEST POP POP JUMPDEST POP POP POP JUMP JUMPDEST PUSH0 DUP3 DUP3 SHR SWAP1 POP SWAP3 SWAP2 POP POP JUMP JUMPDEST PUSH0 PUSH2 0x29F PUSH0 NOT DUP5 PUSH1 0x8 MUL PUSH2 0x284 JUMP JUMPDEST NOT DUP1 DUP4 AND SWAP2 POP POP SWAP3 SWAP2 POP POP JUMP JUMPDEST PUSH0 PUSH2 0x2B7 DUP4 DUP4 PUSH2 0x290 JUMP JUMPDEST SWAP2 POP DUP3 PUSH1 0x2 MUL DUP3 OR SWAP1 POP SWAP3 SWAP2 POP POP JUMP JUMPDEST PUSH2 0x2D0 DUP3 PUSH2 0x8A JUMP JUMPDEST PUSH8 0xFFFFFFFFFFFFFFFF DUP2 GT ISZERO PUSH2 0x2E9 JUMPI PUSH2 0x2E8 PUSH2 0x94 JUMP JUMPDEST JUMPDEST PUSH2 0x2F3 DUP3 SLOAD PUSH2 0xEE JUMP JUMPDEST PUSH2 0x2FE DUP3 DUP3 DUP6 PUSH2 0x23E JUMP JUMPDEST PUSH0 PUSH1 0x20 SWAP1 POP PUSH1 0x1F DUP4 GT PUSH1 0x1 DUP2 EQ PUSH2 0x32F JUMPI PUSH0 DUP5 ISZERO PUSH2 0x31D JUMPI DUP3 DUP8 ADD MLOAD SWAP1 POP JUMPDEST PUSH2 0x327 DUP6 DUP3 PUSH2 0x2AC JUMP JUMPDEST DUP7 SSTORE POP PUSH2 0x38E JUMP JUMPDEST PUSH1 0x1F NOT DUP5 AND PUSH2 0x33D DUP7 PUSH2 0x11E JUMP JUMPDEST PUSH0 JUMPDEST DUP3 DUP2 LT ISZERO PUSH2 0x364 JUMPI DUP5 DUP10 ADD MLOAD DUP3 SSTORE PUSH1 0x1 DUP3 ADD SWAP2 POP PUSH1 0x20 DUP6 ADD SWAP5 POP PUSH1 0x20 DUP2 ADD SWAP1 POP PUSH2 0x33F JUMP JUMPDEST DUP7 DUP4 LT ISZERO PUSH2 0x381 JUMPI DUP5 DUP10 ADD MLOAD PUSH2 0x37D PUSH1 0x1F DUP10 AND DUP3 PUSH2 0x290 JUMP JUMPDEST DUP4 SSTORE POP JUMPDEST PUSH1 0x1 PUSH1 0x2 DUP9 MUL ADD DUP9 SSTORE POP POP POP JUMPDEST POP POP POP POP POP POP JUMP JUMPDEST PUSH0 PUSH1 0x40 MLOAD SWAP1 POP SWAP1 JUMP JUMPDEST PUSH0 PUSH0 REVERT JUMPDEST PUSH0 PUSH0 REVERT JUMPDEST PUSH0 PUSH0 REVERT JUMPDEST PUSH0 PUSH0 REVERT JUMPDEST PUSH0 PUSH1 0x1F NOT PUSH1 0x1F DUP4 ADD AND SWAP1 POP SWAP2 SWAP1 POP JUMP JUMPDEST PUSH2 0x3C8 DUP3 PUSH2 0x3AF JUMP JUMPDEST DUP2 ADD DUP2 DUP2 LT PUSH8 0xFFFFFFFFFFFFFFFF DUP3 GT OR ISZERO PUSH2 0x3E7 JUMPI PUSH2 0x3E6 PUSH2 0x94 JUMP JUMPDEST JUMPDEST DUP1 PUSH1 0x40 MSTORE POP POP POP JUMP JUMPDEST PUSH0 PUSH2 0x3F9 PUSH2 0x396 JUMP JUMPDEST SWAP1 POP PUSH2 0x405 DUP3 DUP3 PUSH2 0x3BF JUMP JUMPDEST SWAP2 SWAP1 POP JUMP JUMPDEST PUSH0 PUSH8 0xFFFFFFFFFFFFFFFF DUP3 GT ISZERO PUSH2 0x424 JUMPI PUSH2 0x423 PUSH2 0x94 JUMP JUMPDEST JUMPDEST PUSH2 0x42D DUP3 PUSH2 0x3AF JUMP JUMPDEST SWAP1 POP PUSH1 0x20 DUP2 ADD SWAP1 POP SWAP2 SWAP1 POP JUMP JUMPDEST DUP3 DUP2 DUP4 MCOPY PUSH0 DUP4 DUP4 ADD MSTORE POP POP POP JUMP JUMPDEST PUSH0 PUSH2 0x45A PUSH2 0x455 DUP5 PUSH2 0x40A JUMP JUMPDEST PUSH2 0x3F0 JUMP JUMPDEST SWAP1 POP DUP3 DUP2 MSTORE PUSH1 0x20 DUP2 ADD DUP5 DUP5 DUP5 ADD GT ISZERO PUSH2 0x476 JUMPI PUSH2 0x475 PUSH2 0x3AB JUMP JUMPDEST JUMPDEST PUSH2 0x481 DUP5 DUP3 DUP6 PUSH2 0x43A JUMP JUMPDEST POP SWAP4 SWAP3 POP POP POP JUMP JUMPDEST PUSH0 DUP3 PUSH1 0x1F DUP4 ADD SLT PUSH2 0x49D JUMPI PUSH2 0x49C PUSH2 0x3A7 JUMP JUMPDEST JUMPDEST DUP2 MLOAD PUSH2 0x4AD DUP5 DUP3 PUSH1 0x20 DUP7 ADD PUSH2 0x448 JUMP JUMPDEST SWAP2 POP POP SWAP3 SWAP2 POP POP JUMP JUMPDEST PUSH0 PUSH1 0x20 DUP3 DUP5 SUB SLT ISZERO PUSH2 0x4CB JUMPI PUSH2 0x4CA PUSH2 0x39F JUMP JUMPDEST JUMPDEST PUSH0 DUP3 ADD MLOAD PUSH8 0xFFFFFFFFFFFFFFFF DUP2 GT ISZERO PUSH2 0x4E8 JUMPI PUSH2 0x4E7 PUSH2 0x3A3 JUMP JUMPDEST JUMPDEST PUSH2 0x4F4 DUP5 DUP3 DUP6 ADD PUSH2 0x489 JUMP JUMPDEST SWAP2 POP POP SWAP3 SWAP2 POP POP JUMP JUMPDEST PUSH2 0x64E DUP1 PUSH2 0x50A PUSH0 CODECOPY PUSH0 RETURN INVALID PUSH1 0x80 PUSH1 0x40 MSTORE CALLVALUE DUP1 ISZERO PUSH2 0xF JUMPI PUSH0 PUSH0 REVERT JUMPDEST POP PUSH1 0x4 CALLDATASIZE LT PUSH2 0x3F JUMPI PUSH0 CALLDATALOAD PUSH1 0xE0 SHR DUP1 PUSH4 0x368B8772 EQ PUSH2 0x43 JUMPI DUP1 PUSH4 0xCE6D41DE EQ PUSH2 0x5F JUMPI DUP1 PUSH4 0xE21F37CE EQ PUSH2 0x7D JUMPI JUMPDEST PUSH0 PUSH0 REVERT JUMPDEST PUSH2 0x5D PUSH1 0x4 DUP1 CALLDATASIZE SUB DUP2 ADD SWAP1 PUSH2 0x58 SWAP2 SWAP1 PUSH2 0x233 JUMP JUMPDEST PUSH2 0x9B JUMP JUMPDEST STOP JUMPDEST PUSH2 0x67 PUSH2 0xB0 JUMP JUMPDEST PUSH1 0x40 MLOAD PUSH2 0x74 SWAP2 SWAP1 PUSH2 0x2EE JUMP JUMPDEST PUSH1 0x40 MLOAD DUP1 SWAP2 SUB SWAP1 RETURN JUMPDEST PUSH2 0x85 PUSH2 0x13F JUMP JUMPDEST PUSH1 0x40 MLOAD PUSH2 0x92 SWAP2 SWAP1 PUSH2 0x2EE JUMP JUMPDEST PUSH1 0x40 MLOAD DUP1 SWAP2 SUB SWAP1 RETURN JUMPDEST DUP2 DUP2 PUSH0 SWAP2 DUP3 PUSH2 0xAB SWAP3 SWAP2 SWAP1 PUSH2 0x54B JUMP JUMPDEST POP POP POP JUMP JUMPDEST PUSH1 0x60 PUSH0 DUP1 SLOAD PUSH2 0xBE SWAP1 PUSH2 0x372 JUMP JUMPDEST DUP1 PUSH1 0x1F ADD PUSH1 0x20 DUP1 SWAP2 DIV MUL PUSH1 0x20 ADD PUSH1 0x40 MLOAD SWAP1 DUP2 ADD PUSH1 0x40 MSTORE DUP1 SWAP3 SWAP2 SWAP1 DUP2 DUP2 MSTORE PUSH1 0x20 ADD DUP3 DUP1 SLOAD PUSH2 0xEA SWAP1 PUSH2 0x372 JUMP JUMPDEST DUP1 ISZERO PUSH2 0x135 JUMPI DUP1 PUSH1 0x1F LT PUSH2 0x10C JUMPI PUSH2 0x100 DUP1 DUP4 SLOAD DIV MUL DUP4 MSTORE SWAP2 PUSH1 0x20 ADD SWAP2 PUSH2 0x135 JUMP JUMPDEST DUP3 ADD SWAP2 SWAP1 PUSH0 MSTORE PUSH1 0x20 PUSH0 KECCAK256 SWAP1 JUMPDEST DUP2 SLOAD DUP2 MSTORE SWAP1 PUSH1 0x1 ADD SWAP1 PUSH1 0x20 ADD DUP1 DUP4 GT PUSH2 0x118 JUMPI DUP3 SWAP1 SUB PUSH1 0x1F AND DUP3 ADD SWAP2 JUMPDEST POP POP POP POP POP SWAP1 POP SWAP1 JUMP JUMPDEST PUSH0 DUP1 SLOAD PUSH2 0x14B SWAP1 PUSH2 0x372 JUMP JUMPDEST DUP1 PUSH1 0x1F ADD PUSH1 0x20 DUP1 SWAP2 DIV MUL PUSH1 0x20 ADD PUSH1 0x40 MLOAD SWAP1 DUP2 ADD PUSH1 0x40 MSTORE DUP1 SWAP3 SWAP2 SWAP1 DUP2 DUP2 MSTORE PUSH1 0x20 ADD DUP3 DUP1 SLOAD PUSH2 0x177 SWAP1 PUSH2 0x372 JUMP JUMPDEST DUP1 ISZERO PUSH2 0x1C2 JUMPI DUP1 PUSH1 0x1F LT PUSH2 0x199 JUMPI PUSH2 0x100 DUP1 DUP4 SLOAD DIV MUL DUP4 MSTORE SWAP2 PUSH1 0x20 ADD SWAP2 PUSH2 0x1C2 JUMP JUMPDEST DUP3 ADD SWAP2 SWAP1 PUSH0 MSTORE PUSH1 0x20 PUSH0 KECCAK256 SWAP1 JUMPDEST DUP2 SLOAD DUP2 MSTORE SWAP1 PUSH1 0x1 ADD SWAP1 PUSH1 0x20 ADD DUP1 DUP4 GT PUSH2 0x1A5 JUMPI DUP3 SWAP1 SUB PUSH1 0x1F AND DUP3 ADD SWAP2 JUMPDEST POP POP POP POP POP DUP2 JUMP JUMPDEST PUSH0 PUSH0 REVERT JUMPDEST PUSH0 PUSH0 REVERT JUMPDEST PUSH0 PUSH0 REVERT JUMPDEST PUSH0 PUSH0 REVERT JUMPDEST PUSH0 PUSH0 REVERT JUMPDEST PUSH0 PUSH0 DUP4 PUSH1 0x1F DUP5 ADD SLT PUSH2 0x1F3 JUMPI PUSH2 0x1F2 PUSH2 0x1D2 JUMP JUMPDEST JUMPDEST DUP3 CALLDATALOAD SWAP1 POP PUSH8 0xFFFFFFFFFFFFFFFF DUP2 GT ISZERO PUSH2 0x210 JUMPI PUSH2 0x20F PUSH2 0x1D6 JUMP JUMPDEST JUMPDEST PUSH1 0x20 DUP4 ADD SWAP2 POP DUP4 PUSH1 0x1 DUP3 MUL DUP4 ADD GT ISZERO PUSH2 0x22C JUMPI PUSH2 0x22B PUSH2 0x1DA JUMP JUMPDEST JUMPDEST SWAP3 POP SWAP3 SWAP1 POP JUMP JUMPDEST PUSH0 PUSH0 PUSH1 0x20 DUP4 DUP6 SUB SLT ISZERO PUSH2 0x249 JUMPI PUSH2 0x248 PUSH2 0x1CA JUMP JUMPDEST JUMPDEST PUSH0 DUP4 ADD CALLDATALOAD PUSH8 0xFFFFFFFFFFFFFFFF DUP2 GT ISZERO PUSH2 0x266 JUMPI PUSH2 0x265 PUSH2 0x1CE JUMP JUMPDEST JUMPDEST PUSH2 0x272 DUP6 DUP3 DUP7 ADD PUSH2 0x1DE JUMP JUMPDEST SWAP3 POP SWAP3 POP POP SWAP3 POP SWAP3 SWAP1 POP JUMP JUMPDEST PUSH0 DUP2 MLOAD SWAP1 POP SWAP2 SWAP1 POP JUMP JUMPDEST PUSH0 DUP3 DUP3 MSTORE PUSH1 0x20 DUP3 ADD SWAP1 POP SWAP3 SWAP2 POP POP JUMP JUMPDEST DUP3 DUP2 DUP4 MCOPY PUSH0 DUP4 DUP4 ADD MSTORE POP POP POP JUMP JUMPDEST PUSH0 PUSH1 0x1F NOT PUSH1 0x1F DUP4 ADD AND SWAP1 POP SWAP2 SWAP1 POP JUMP JUMPDEST PUSH0 PUSH2 0x2C0 DUP3 PUSH2 0x27E JUMP JUMPDEST PUSH2 0x2CA DUP2 DUP6 PUSH2 0x288 JUMP JUMPDEST SWAP4 POP PUSH2 0x2DA DUP2 DUP6 PUSH1 0x20 DUP7 ADD PUSH2 0x298 JUMP JUMPDEST PUSH2 0x2E3 DUP2 PUSH2 0x2A6 JUMP JUMPDEST DUP5 ADD SWAP2 POP POP SWAP3 SWAP2 POP POP JUMP JUMPDEST PUSH0 PUSH1 0x20 DUP3 ADD SWAP1 POP DUP2 DUP2 SUB PUSH0 DUP4 ADD MSTORE PUSH2 0x306 DUP2 DUP5 PUSH2 0x2B6 JUMP JUMPDEST SWAP1 POP SWAP3 SWAP2 POP POP JUMP JUMPDEST PUSH0 DUP3 SWAP1 POP SWAP3 SWAP2 POP POP JUMP JUMPDEST PUSH32 0x4E487B7100000000000000000000000000000000000000000000000000000000 PUSH0 MSTORE PUSH1 0x41 PUSH1 0x4 MSTORE PUSH1 0x24 PUSH0 REVERT JUMPDEST PUSH32 0x4E487B7100000000000000000000000000000000000000000000000000000000 PUSH0 MSTORE PUSH1 0x22 PUSH1 0x4 MSTORE PUSH1 0x24 PUSH0 REVERT JUMPDEST PUSH0 PUSH1 0x2 DUP3 DIV SWAP1 POP PUSH1 0x1 DUP3 AND DUP1 PUSH2 0x389 JUMPI PUSH1 0x7F DUP3 AND SWAP2 POP JUMPDEST PUSH1 0x20 DUP3 LT DUP2 SUB PUSH2 0x39C JUMPI PUSH2 0x39B PUSH2 0x345 JUMP JUMPDEST JUMPDEST POP SWAP2 SWAP1 POP JUMP JUMPDEST PUSH0 DUP2 SWAP1 POP DUP2 PUSH0 MSTORE PUSH1 0x20 PUSH0 KECCAK256 SWAP1 POP SWAP2 SWAP1 POP JUMP JUMPDEST PUSH0 PUSH1 0x20 PUSH1 0x1F DUP4 ADD DIV SWAP1 POP SWAP2 SWAP1 POP JUMP JUMPDEST PUSH0 DUP3 DUP3 SHL SWAP1 POP SWAP3 SWAP2 POP POP JUMP JUMPDEST PUSH0 PUSH1 0x8 DUP4 MUL PUSH2 0x3FE PUSH32 0xFFFFFFFFFFFFFFFFFFFFFFFFFFFFFFFFFFFFFFFFFFFFFFFFFFFFFFFFFFFFFFFF DUP3 PUSH2 0x3C3 JUMP JUMPDEST PUSH2 0x408 DUP7 DUP4 PUSH2 0x3C3 JUMP JUMPDEST SWAP6 POP DUP1 NOT DUP5 AND SWAP4 POP DUP1 DUP7 AND DUP5 OR SWAP3 POP POP POP SWAP4 SWAP3 POP POP POP JUMP JUMPDEST PUSH0 DUP2 SWAP1 POP SWAP2 SWAP1 POP JUMP JUMPDEST PUSH0 DUP2 SWAP1 POP SWAP2 SWAP1 POP JUMP JUMPDEST PUSH0 PUSH2 0x44C PUSH2 0x447 PUSH2 0x442 DUP5 PUSH2 0x420 JUMP JUMPDEST PUSH2 0x429 JUMP JUMPDEST PUSH2 0x420 JUMP JUMPDEST SWAP1 POP SWAP2 SWAP1 POP JUMP JUMPDEST PUSH0 DUP2 SWAP1 POP SWAP2 SWAP1 POP JUMP JUMPDEST PUSH2 0x465 DUP4 PUSH2 0x432 JUMP JUMPDEST PUSH2 0x479 PUSH2 0x471 DUP3 PUSH2 0x453 JUMP JUMPDEST DUP5 DUP5 SLOAD PUSH2 0x3CF JUMP JUMPDEST DUP3 SSTORE POP POP POP POP JUMP JUMPDEST PUSH0 PUSH0 SWAP1 POP SWAP1 JUMP JUMPDEST PUSH2 0x490 PUSH2 0x481 JUMP JUMPDEST PUSH2 0x49B DUP2 DUP5 DUP5 PUSH2 0x45C JUMP JUMPDEST POP POP POP JUMP JUMPDEST JUMPDEST DUP2 DUP2 LT ISZERO PUSH2 0x4BE JUMPI PUSH2 0x4B3 PUSH0 DUP3 PUSH2 0x488 JUMP JUMPDEST PUSH1 0x1 DUP2 ADD SWAP1 POP PUSH2 0x4A1 JUMP JUMPDEST POP POP JUMP JUMPDEST PUSH1 0x1F DUP3 GT ISZERO PUSH2 0x503 JUMPI PUSH2 0x4D4 DUP2 PUSH2 0x3A2 JUMP JUMPDEST PUSH2 0x4DD DUP5 PUSH2 0x3B4 JUMP JUMPDEST DUP2 ADD PUSH1 0x20 DUP6 LT ISZERO PUSH2 0x4EC JUMPI DUP2 SWAP1 POP JUMPDEST PUSH2 0x500 PUSH2 0x4F8 DUP6 PUSH2 0x3B4 JUMP JUMPDEST DUP4 ADD DUP3 PUSH2 0x4A0 JUMP JUMPDEST POP POP JUMPDEST POP POP POP JUMP JUMPDEST PUSH0 DUP3 DUP3 SHR SWAP1 POP SWAP3 SWAP2 POP POP JUMP JUMPDEST PUSH0 PUSH2 0x523 PUSH0 NOT DUP5 PUSH1 0x8 MUL PUSH2 0x508 JUMP JUMPDEST NOT DUP1 DUP4 AND SWAP2 POP POP SWAP3 SWAP2 POP POP JUMP JUMPDEST PUSH0 PUSH2 0x53B DUP4 DUP4 PUSH2 0x514 JUMP JUMPDEST SWAP2 POP DUP3 PUSH1 0x2 MUL DUP3 OR SWAP1 POP SWAP3 SWAP2 POP POP JUMP JUMPDEST PUSH2 0x555 DUP4 DUP4 PUSH2 0x30E JUMP JUMPDEST PUSH8 0xFFFFFFFFFFFFFFFF DUP2 GT ISZERO PUSH2 0x56E JUMPI PUSH2 0x56D PUSH2 0x318 JUMP JUMPDEST JUMPDEST PUSH2 0x578 DUP3 SLOAD PUSH2 0x372 JUMP JUMPDEST PUSH2 0x583 DUP3 DUP3 DUP6 PUSH2 0x4C2 JUMP JUMPDEST PUSH0 PUSH1 0x1F DUP4 GT PUSH1 0x1 DUP2 EQ PUSH2 0x5B0 JUMPI PUSH0 DUP5 ISZERO PUSH2 0x59E JUMPI DUP3 DUP8 ADD CALLDATALOAD SWAP1 POP JUMPDEST PUSH2 0x5A8 DUP6 DUP3 PUSH2 0x530 JUMP JUMPDEST DUP7 SSTORE POP PUSH2 0x60F JUMP JUMPDEST PUSH1 0x1F NOT DUP5 AND PUSH2 0x5BE DUP7 PUSH2 0x3A2 JUMP JUMPDEST PUSH0 JUMPDEST DUP3 DUP2 LT ISZERO PUSH2 0x5E5 JUMPI DUP5 DUP10 ADD CALLDATALOAD DUP3 SSTORE PUSH1 0x1 DUP3 ADD SWAP2 POP PUSH1 0x20 DUP6 ADD SWAP5 POP PUSH1 0x20 DUP2 ADD SWAP1 POP PUSH2 0x5C0 JUMP JUMPDEST DUP7 DUP4 LT ISZERO PUSH2 0x602 JUMPI DUP5 DUP10 ADD CALLDATALOAD PUSH2 0x5FE PUSH1 0x1F DUP10 AND DUP3 PUSH2 0x514 JUMP JUMPDEST DUP4 SSTORE POP JUMPDEST PUSH1 0x1 PUSH1 0x2 DUP9 MUL ADD DUP9 SSTORE POP POP POP JUMPDEST POP POP POP POP POP POP POP JUMP INVALID LOG2 PUSH5 0x6970667358 0x22 SLT KECCAK256 PUSH29 0xE76DAFE796507910239718AF730D88B3EDFEAC5A03293830C236763723 DUP13 PUSH22 0x64736F6C634300081C00330000000000000000000000 "
				},
				"gasEstimates": {
					"creation": {
						"codeDepositCost": "322800",
						"executionCost": "infinite",
						"totalCost": "infinite"
					},
					"external": {
						"getMessage()": "infinite",
						"message()": "infinite",
						"setMessage(string)": "infinite"
					}
				},
				"methodIdentifiers": {
					"getMessage()": "ce6d41de",
					"message()": "e21f37ce",
					"setMessage(string)": "368b8772"
				}
			},
			"storageLayout": {
				"storage": [
					{
						"astId": 4,
						"contract": "contracts/3_Ballot.sol:Inbox",
						"label": "message",
						"offset": 0,
						"slot": "0",
						"type": "t_string_storage"
					}
				],
				"types": {
					"t_string_storage": {
						"encoding": "bytes",
						"label": "string",
						"numberOfBytes": "32"
					}
				}
			},
			"userdoc": {
				"kind": "user",
				"methods": {},
				"version": 1
			}
		}
	}
}